{
  "contractName": "RouletteV2",
  "abi": [
    {
      "anonymous": false,
      "inputs": [
        {
          "indexed": false,
          "internalType": "address",
          "name": "previousAdmin",
          "type": "address"
        },
        {
          "indexed": false,
          "internalType": "address",
          "name": "newAdmin",
          "type": "address"
        }
      ],
      "name": "AdminChanged",
      "type": "event"
    },
    {
      "anonymous": false,
      "inputs": [
        {
          "indexed": true,
          "internalType": "address",
          "name": "beacon",
          "type": "address"
        }
      ],
      "name": "BeaconUpgraded",
      "type": "event"
    },
    {
      "anonymous": false,
      "inputs": [
        {
          "components": [
            {
              "internalType": "uint8",
              "name": "betType",
              "type": "uint8"
            },
            {
              "internalType": "uint8[]",
              "name": "numbers",
              "type": "uint8[]"
            },
            {
              "internalType": "uint256",
              "name": "amount",
              "type": "uint256"
            }
          ],
          "indexed": false,
          "internalType": "struct Roulette.Bet[]",
          "name": "bets",
          "type": "tuple[]"
        },
        {
          "indexed": true,
          "internalType": "address",
          "name": "sender",
          "type": "address"
        },
        {
          "indexed": true,
          "internalType": "uint256",
          "name": "currentEpoch",
          "type": "uint256"
        },
        {
          "indexed": false,
          "internalType": "uint256",
          "name": "totalAmount",
          "type": "uint256"
        }
      ],
      "name": "Bets",
      "type": "event"
    },
    {
      "anonymous": false,
      "inputs": [
        {
          "indexed": false,
          "internalType": "uint256",
          "name": "currentEpoch",
          "type": "uint256"
        },
        {
          "indexed": false,
          "internalType": "uint256",
          "name": "startBuffer",
          "type": "uint256"
        },
        {
          "indexed": false,
          "internalType": "uint256",
          "name": "beforeEndBuffer",
          "type": "uint256"
        },
        {
          "indexed": false,
          "internalType": "uint256",
          "name": "afterEndBuffer",
          "type": "uint256"
        }
      ],
      "name": "BuffersUpdated",
      "type": "event"
    },
    {
      "anonymous": false,
      "inputs": [
        {
          "indexed": true,
          "internalType": "address",
          "name": "sender",
          "type": "address"
        },
        {
          "indexed": true,
          "internalType": "uint256",
          "name": "currentEpoch",
          "type": "uint256"
        },
        {
          "indexed": false,
          "internalType": "uint256",
          "name": "amount",
          "type": "uint256"
        }
      ],
      "name": "Claim",
      "type": "event"
    },
    {
      "anonymous": false,
      "inputs": [
        {
          "indexed": false,
          "internalType": "uint256",
          "name": "amount",
          "type": "uint256"
        }
      ],
      "name": "ClaimTreasury",
      "type": "event"
    },
    {
      "anonymous": false,
      "inputs": [
        {
          "indexed": false,
          "internalType": "uint256",
          "name": "currentEpoch",
          "type": "uint256"
        },
        {
          "indexed": false,
          "internalType": "uint256",
          "name": "closeInterval",
          "type": "uint256"
        }
      ],
      "name": "CloseIntervalUpdated",
      "type": "event"
    },
    {
      "anonymous": false,
      "inputs": [
        {
          "indexed": true,
          "internalType": "uint256",
          "name": "epoch",
          "type": "uint256"
        },
        {
          "indexed": false,
          "internalType": "uint256",
          "name": "time",
          "type": "uint256"
        },
        {
          "indexed": false,
          "internalType": "uint8",
          "name": "winnningNum",
          "type": "uint8"
        }
      ],
      "name": "EndRound",
      "type": "event"
    },
    {
      "anonymous": false,
      "inputs": [
        {
          "indexed": true,
          "internalType": "uint256",
          "name": "epoch",
          "type": "uint256"
        },
        {
          "indexed": true,
          "internalType": "uint8[]",
          "name": "betType",
          "type": "uint8[]"
        },
        {
          "indexed": false,
          "internalType": "uint256[]",
          "name": "maxBetAmount",
          "type": "uint256[]"
        }
      ],
      "name": "MaxBetAmountUpdated",
      "type": "event"
    },
    {
      "anonymous": false,
      "inputs": [
        {
          "indexed": true,
          "internalType": "uint256",
          "name": "epoch",
          "type": "uint256"
        },
        {
          "indexed": true,
          "internalType": "uint8[]",
          "name": "betType",
          "type": "uint8[]"
        },
        {
          "indexed": false,
          "internalType": "uint256[]",
          "name": "minBetAmount",
          "type": "uint256[]"
        }
      ],
      "name": "MinBetAmountUpdated",
      "type": "event"
    },
    {
      "anonymous": false,
      "inputs": [
        {
          "indexed": false,
          "internalType": "address",
          "name": "to",
          "type": "address"
        },
        {
          "indexed": false,
          "internalType": "uint256",
          "name": "amount",
          "type": "uint256"
        }
      ],
      "name": "NativeWithdrawal",
      "type": "event"
    },
    {
      "anonymous": false,
      "inputs": [
        {
          "indexed": false,
          "internalType": "address",
          "name": "previousOperator",
          "type": "address"
        },
        {
          "indexed": false,
          "internalType": "address",
          "name": "newOperator",
          "type": "address"
        }
      ],
      "name": "OperatorChanged",
      "type": "event"
    },
    {
      "anonymous": false,
      "inputs": [
        {
          "indexed": false,
          "internalType": "uint256",
          "name": "currentEpoch",
          "type": "uint256"
        },
        {
          "indexed": false,
          "internalType": "uint256",
          "name": "_randomNumUpdateAllowance",
          "type": "uint256"
        }
      ],
      "name": "OracleUpdateAllowanceUpdated",
      "type": "event"
    },
    {
      "anonymous": false,
      "inputs": [
        {
          "indexed": true,
          "internalType": "address",
          "name": "previousOwner",
          "type": "address"
        },
        {
          "indexed": true,
          "internalType": "address",
          "name": "newOwner",
          "type": "address"
        }
      ],
      "name": "OwnershipTransferred",
      "type": "event"
    },
    {
      "anonymous": false,
      "inputs": [
        {
          "indexed": false,
          "internalType": "uint256",
          "name": "epoch",
          "type": "uint256"
        }
      ],
      "name": "Pause",
      "type": "event"
    },
    {
      "anonymous": false,
      "inputs": [
        {
          "indexed": false,
          "internalType": "address",
          "name": "account",
          "type": "address"
        }
      ],
      "name": "Paused",
      "type": "event"
    },
    {
      "anonymous": false,
      "inputs": [
        {
          "indexed": true,
          "internalType": "uint256",
          "name": "epoch",
          "type": "uint256"
        },
        {
          "indexed": true,
          "internalType": "uint8[]",
          "name": "betType",
          "type": "uint8[]"
        },
        {
          "indexed": false,
          "internalType": "uint8[]",
          "name": "payout",
          "type": "uint8[]"
        }
      ],
      "name": "PayoutUpdated",
      "type": "event"
    },
    {
      "anonymous": false,
      "inputs": [
        {
          "indexed": true,
          "internalType": "uint256",
          "name": "epoch",
          "type": "uint256"
        },
        {
          "indexed": false,
          "internalType": "uint256",
          "name": "rewardAmount",
          "type": "uint256"
        },
        {
          "indexed": false,
          "internalType": "uint256",
          "name": "treasuryAmount",
          "type": "uint256"
        }
      ],
      "name": "RewardsCalculated",
      "type": "event"
    },
    {
      "anonymous": false,
      "inputs": [
        {
          "indexed": true,
          "internalType": "uint256",
          "name": "epoch",
          "type": "uint256"
        },
        {
          "indexed": false,
          "internalType": "uint256",
          "name": "time",
          "type": "uint256"
        }
      ],
      "name": "StartRound",
      "type": "event"
    },
    {
      "anonymous": false,
      "inputs": [
        {
          "indexed": false,
          "internalType": "uint256",
          "name": "epoch",
          "type": "uint256"
        },
        {
          "indexed": false,
          "internalType": "address",
          "name": "token",
          "type": "address"
        },
        {
          "indexed": false,
          "internalType": "uint8",
          "name": "decimals",
          "type": "uint8"
        }
      ],
      "name": "TokenStakedUpdated",
      "type": "event"
    },
    {
      "anonymous": false,
      "inputs": [
        {
          "indexed": false,
          "internalType": "address",
          "name": "to",
          "type": "address"
        },
        {
          "indexed": false,
          "internalType": "address",
          "name": "token",
          "type": "address"
        },
        {
          "indexed": false,
          "internalType": "uint256",
          "name": "amount",
          "type": "uint256"
        }
      ],
      "name": "TokenWithdrawal",
      "type": "event"
    },
    {
      "anonymous": false,
      "inputs": [
        {
          "indexed": false,
          "internalType": "uint256",
          "name": "epoch",
          "type": "uint256"
        }
      ],
      "name": "Unpause",
      "type": "event"
    },
    {
      "anonymous": false,
      "inputs": [
        {
          "indexed": false,
          "internalType": "address",
          "name": "account",
          "type": "address"
        }
      ],
      "name": "Unpaused",
      "type": "event"
    },
    {
      "anonymous": false,
      "inputs": [
        {
          "indexed": true,
          "internalType": "address",
          "name": "implementation",
          "type": "address"
        }
      ],
      "name": "Upgraded",
      "type": "event"
    },
    {
      "inputs": [],
      "name": "admin",
      "outputs": [
        {
          "internalType": "address",
          "name": "",
          "type": "address"
        }
      ],
      "stateMutability": "view",
      "type": "function"
    },
    {
      "inputs": [],
      "name": "afterEndBuffer",
      "outputs": [
        {
          "internalType": "uint256",
          "name": "",
          "type": "uint256"
        }
      ],
      "stateMutability": "view",
      "type": "function"
    },
    {
      "inputs": [],
      "name": "beforeEndBuffer",
      "outputs": [
        {
          "internalType": "uint256",
          "name": "",
          "type": "uint256"
        }
      ],
      "stateMutability": "view",
      "type": "function"
    },
    {
      "inputs": [
        {
          "components": [
            {
              "internalType": "uint8",
              "name": "betType",
              "type": "uint8"
            },
            {
              "internalType": "uint8[]",
              "name": "numbers",
              "type": "uint8[]"
            },
            {
              "internalType": "uint256",
              "name": "amount",
              "type": "uint256"
            }
          ],
          "internalType": "struct Roulette.Bet[]",
          "name": "bets",
          "type": "tuple[]"
        }
      ],
      "name": "bet",
      "outputs": [],
      "stateMutability": "nonpayable",
      "type": "function"
    },
    {
      "inputs": [
        {
          "internalType": "uint256",
          "name": "epoch",
          "type": "uint256"
        }
      ],
      "name": "bettable",
      "outputs": [
        {
          "internalType": "bool",
          "name": "",
          "type": "bool"
        }
      ],
      "stateMutability": "view",
      "type": "function"
    },
    {
      "inputs": [
        {
          "internalType": "address",
          "name": "token",
          "type": "address"
        },
        {
          "internalType": "uint8",
          "name": "_decimals",
          "type": "uint8"
        }
      ],
      "name": "changeTokenStaked",
      "outputs": [],
      "stateMutability": "nonpayable",
      "type": "function"
    },
    {
      "inputs": [
        {
          "internalType": "uint256",
          "name": "epoch",
          "type": "uint256"
        }
      ],
      "name": "claim",
      "outputs": [],
      "stateMutability": "nonpayable",
      "type": "function"
    },
    {
      "inputs": [],
      "name": "claimTreasury",
      "outputs": [],
      "stateMutability": "nonpayable",
      "type": "function"
    },
    {
      "inputs": [
        {
          "internalType": "uint256",
          "name": "epoch",
          "type": "uint256"
        },
        {
          "internalType": "address",
          "name": "user",
          "type": "address"
        }
      ],
      "name": "claimable",
      "outputs": [
        {
          "internalType": "bool",
          "name": "",
          "type": "bool"
        },
        {
          "internalType": "uint256",
          "name": "",
          "type": "uint256"
        }
      ],
      "stateMutability": "view",
      "type": "function"
    },
    {
      "inputs": [],
      "name": "closeInterval",
      "outputs": [
        {
          "internalType": "uint256",
          "name": "",
          "type": "uint256"
        }
      ],
      "stateMutability": "view",
      "type": "function"
    },
    {
      "inputs": [],
      "name": "closeRound",
      "outputs": [],
      "stateMutability": "nonpayable",
      "type": "function"
    },
    {
      "inputs": [],
      "name": "currentEpoch",
      "outputs": [
        {
          "internalType": "uint256",
          "name": "",
          "type": "uint256"
        }
      ],
      "stateMutability": "view",
      "type": "function"
    },
    {
      "inputs": [],
      "name": "genesisEndOnce",
      "outputs": [
        {
          "internalType": "bool",
          "name": "",
          "type": "bool"
        }
      ],
      "stateMutability": "view",
      "type": "function"
    },
    {
      "inputs": [],
      "name": "genesisEndRound",
      "outputs": [],
      "stateMutability": "nonpayable",
      "type": "function"
    },
    {
      "inputs": [],
      "name": "genesisStartOnce",
      "outputs": [
        {
          "internalType": "bool",
          "name": "",
          "type": "bool"
        }
      ],
      "stateMutability": "view",
      "type": "function"
    },
    {
      "inputs": [],
      "name": "genesisStartRound",
      "outputs": [],
      "stateMutability": "nonpayable",
      "type": "function"
    },
    {
      "inputs": [],
      "name": "getPayouts",
      "outputs": [
        {
          "internalType": "uint8[]",
          "name": "",
          "type": "uint8[]"
        }
      ],
      "stateMutability": "view",
      "type": "function"
    },
    {
      "inputs": [],
      "name": "getRandomNumberOracleAdd",
      "outputs": [
        {
          "internalType": "address",
          "name": "",
          "type": "address"
        }
      ],
      "stateMutability": "view",
      "type": "function"
    },
    {
      "inputs": [],
      "name": "getRandomRoundId",
      "outputs": [
        {
          "internalType": "uint256",
          "name": "",
          "type": "uint256"
        }
      ],
      "stateMutability": "view",
      "type": "function"
    },
    {
      "inputs": [
        {
          "internalType": "address",
          "name": "user",
          "type": "address"
        },
        {
          "internalType": "uint256",
          "name": "cursor",
          "type": "uint256"
        },
        {
          "internalType": "uint256",
          "name": "size",
          "type": "uint256"
        }
      ],
      "name": "getUserRounds",
      "outputs": [
        {
          "internalType": "uint256[]",
          "name": "",
          "type": "uint256[]"
        },
        {
          "internalType": "uint256",
          "name": "",
          "type": "uint256"
        }
      ],
      "stateMutability": "view",
      "type": "function"
    },
    {
      "inputs": [
        {
          "internalType": "bytes",
          "name": "data",
          "type": "bytes"
        },
        {
          "internalType": "address[]",
          "name": "_ownerAdminOperator",
          "type": "address[]"
        }
      ],
      "name": "initialize",
      "outputs": [],
      "stateMutability": "nonpayable",
      "type": "function"
    },
    {
      "inputs": [
        {
          "internalType": "uint256",
          "name": "",
          "type": "uint256"
        },
        {
          "internalType": "address",
          "name": "",
          "type": "address"
        }
      ],
      "name": "ledger",
      "outputs": [
        {
          "internalType": "uint256",
          "name": "totalAmount",
          "type": "uint256"
        },
        {
          "internalType": "bool",
          "name": "claimed",
          "type": "bool"
        }
      ],
      "stateMutability": "view",
      "type": "function"
    },
    {
      "inputs": [
        {
          "internalType": "uint8",
          "name": "",
          "type": "uint8"
        }
      ],
      "name": "maxBetAmount",
      "outputs": [
        {
          "internalType": "uint256",
          "name": "",
          "type": "uint256"
        }
      ],
      "stateMutability": "view",
      "type": "function"
    },
    {
      "inputs": [
        {
          "internalType": "uint8",
          "name": "",
          "type": "uint8"
        }
      ],
      "name": "minBetAmount",
      "outputs": [
        {
          "internalType": "uint256",
          "name": "",
          "type": "uint256"
        }
      ],
      "stateMutability": "view",
      "type": "function"
    },
    {
      "inputs": [
        {
          "internalType": "uint8",
          "name": "",
          "type": "uint8"
        }
      ],
      "name": "numbersByKindOfBet",
      "outputs": [
        {
          "internalType": "uint8",
          "name": "",
          "type": "uint8"
        }
      ],
      "stateMutability": "view",
      "type": "function"
    },
    {
      "inputs": [],
      "name": "operator",
      "outputs": [
        {
          "internalType": "address",
          "name": "",
          "type": "address"
        }
      ],
      "stateMutability": "view",
      "type": "function"
    },
    {
      "inputs": [],
      "name": "owner",
      "outputs": [
        {
          "internalType": "address",
          "name": "",
          "type": "address"
        }
      ],
      "stateMutability": "view",
      "type": "function"
    },
    {
      "inputs": [],
      "name": "pause",
      "outputs": [
        {
          "internalType": "bool",
          "name": "",
          "type": "bool"
        }
      ],
      "stateMutability": "nonpayable",
      "type": "function"
    },
    {
      "inputs": [],
      "name": "paused",
      "outputs": [
        {
          "internalType": "bool",
          "name": "",
          "type": "bool"
        }
      ],
      "stateMutability": "view",
      "type": "function"
    },
    {
      "inputs": [
        {
          "internalType": "uint8",
          "name": "",
          "type": "uint8"
        }
      ],
      "name": "payout",
      "outputs": [
        {
          "internalType": "uint8",
          "name": "",
          "type": "uint8"
        }
      ],
      "stateMutability": "view",
      "type": "function"
    },
    {
      "inputs": [],
      "name": "proxiableUUID",
      "outputs": [
        {
          "internalType": "bytes32",
          "name": "",
          "type": "bytes32"
        }
      ],
      "stateMutability": "view",
      "type": "function"
    },
    {
      "inputs": [],
      "name": "randomNumUpdateAllowance",
      "outputs": [
        {
          "internalType": "uint256",
          "name": "",
          "type": "uint256"
        }
      ],
      "stateMutability": "view",
      "type": "function"
    },
    {
      "inputs": [
        {
          "internalType": "uint256",
          "name": "epoch",
          "type": "uint256"
        },
        {
          "internalType": "address",
          "name": "user",
          "type": "address"
        }
      ],
      "name": "refundable",
      "outputs": [
        {
          "internalType": "bool",
          "name": "",
          "type": "bool"
        }
      ],
      "stateMutability": "view",
      "type": "function"
    },
    {
      "inputs": [],
      "name": "renounceOwnership",
      "outputs": [],
      "stateMutability": "nonpayable",
      "type": "function"
    },
    {
      "inputs": [
        {
          "internalType": "uint256",
          "name": "",
          "type": "uint256"
        }
      ],
      "name": "rounds",
      "outputs": [
        {
          "internalType": "uint256",
          "name": "epoch",
          "type": "uint256"
        },
        {
          "internalType": "uint256",
          "name": "startTime",
          "type": "uint256"
        },
        {
          "internalType": "uint256",
          "name": "endTime",
          "type": "uint256"
        },
        {
          "internalType": "uint256",
          "name": "totalAmountBet",
          "type": "uint256"
        },
        {
          "internalType": "uint256",
          "name": "totalRewardAmount",
          "type": "uint256"
        },
        {
          "internalType": "uint256",
          "name": "treasuryCollections",
          "type": "uint256"
        },
        {
          "internalType": "bool",
          "name": "oracleCalled",
          "type": "bool"
        },
        {
          "internalType": "uint8",
          "name": "winningNumber",
          "type": "uint8"
        }
      ],
      "stateMutability": "view",
      "type": "function"
    },
    {
      "inputs": [
        {
          "internalType": "address",
          "name": "_admin",
          "type": "address"
        }
      ],
      "name": "setAdmin",
      "outputs": [],
      "stateMutability": "nonpayable",
      "type": "function"
    },
    {
      "inputs": [
        {
          "internalType": "uint256[]",
          "name": "_buffers",
          "type": "uint256[]"
        }
      ],
      "name": "setBuffers",
      "outputs": [],
      "stateMutability": "nonpayable",
      "type": "function"
    },
    {
      "inputs": [
        {
          "internalType": "uint256",
          "name": "_closeInterval",
          "type": "uint256"
        }
      ],
      "name": "setCloseInterval",
      "outputs": [],
      "stateMutability": "nonpayable",
      "type": "function"
    },
    {
      "inputs": [
        {
          "internalType": "uint8[]",
          "name": "betType",
          "type": "uint8[]"
        },
        {
          "internalType": "uint256[]",
          "name": "_maxBetAmount",
          "type": "uint256[]"
        }
      ],
      "name": "setMaxBetAmount",
      "outputs": [],
      "stateMutability": "nonpayable",
      "type": "function"
    },
    {
      "inputs": [
        {
          "internalType": "uint8[]",
          "name": "betType",
          "type": "uint8[]"
        },
        {
          "internalType": "uint256[]",
          "name": "_minBetAmount",
          "type": "uint256[]"
        }
      ],
      "name": "setMinBetAmount",
      "outputs": [],
      "stateMutability": "nonpayable",
      "type": "function"
    },
    {
      "inputs": [
        {
          "internalType": "address",
          "name": "_operator",
          "type": "address"
        }
      ],
      "name": "setOperator",
      "outputs": [],
      "stateMutability": "nonpayable",
      "type": "function"
    },
    {
      "inputs": [
        {
          "internalType": "uint8[]",
          "name": "betType",
          "type": "uint8[]"
        },
        {
          "internalType": "uint8[]",
          "name": "_payout",
          "type": "uint8[]"
        }
      ],
      "name": "setPayout",
      "outputs": [],
      "stateMutability": "nonpayable",
      "type": "function"
    },
    {
      "inputs": [
        {
          "internalType": "uint256",
          "name": "_randomNumUpdateAllowance",
          "type": "uint256"
        }
      ],
      "name": "setRandomNumUpdateAllowance",
      "outputs": [],
      "stateMutability": "nonpayable",
      "type": "function"
    },
    {
      "inputs": [
        {
          "internalType": "address",
          "name": "_randomGenerator",
          "type": "address"
        }
      ],
      "name": "setRandomNumberOracleAdd",
      "outputs": [],
      "stateMutability": "nonpayable",
      "type": "function"
    },
    {
      "inputs": [],
      "name": "startBuffer",
      "outputs": [
        {
          "internalType": "uint256",
          "name": "",
          "type": "uint256"
        }
      ],
      "stateMutability": "view",
      "type": "function"
    },
    {
      "inputs": [],
      "name": "startRound",
      "outputs": [],
      "stateMutability": "nonpayable",
      "type": "function"
    },
    {
      "inputs": [],
      "name": "tokenDecimals",
      "outputs": [
        {
          "internalType": "uint8",
          "name": "",
          "type": "uint8"
        }
      ],
      "stateMutability": "view",
      "type": "function"
    },
    {
      "inputs": [],
      "name": "tokenStaked",
      "outputs": [
        {
          "internalType": "address",
          "name": "",
          "type": "address"
        }
      ],
      "stateMutability": "view",
      "type": "function"
    },
    {
      "inputs": [
        {
          "internalType": "address",
          "name": "newOwner",
          "type": "address"
        }
      ],
      "name": "transferOwnership",
      "outputs": [],
      "stateMutability": "nonpayable",
      "type": "function"
    },
    {
      "inputs": [],
      "name": "treasuryAmount",
      "outputs": [
        {
          "internalType": "uint256",
          "name": "",
          "type": "uint256"
        }
      ],
      "stateMutability": "view",
      "type": "function"
    },
    {
      "inputs": [],
      "name": "unpause",
      "outputs": [
        {
          "internalType": "bool",
          "name": "",
          "type": "bool"
        }
      ],
      "stateMutability": "nonpayable",
      "type": "function"
    },
    {
      "inputs": [
        {
          "internalType": "address",
          "name": "newImplementation",
          "type": "address"
        }
      ],
      "name": "upgradeTo",
      "outputs": [],
      "stateMutability": "nonpayable",
      "type": "function"
    },
    {
      "inputs": [
        {
          "internalType": "address",
          "name": "newImplementation",
          "type": "address"
        },
        {
          "internalType": "bytes",
          "name": "data",
          "type": "bytes"
        }
      ],
      "name": "upgradeToAndCall",
      "outputs": [],
      "stateMutability": "payable",
      "type": "function"
    },
    {
      "inputs": [
        {
          "internalType": "address",
          "name": "",
          "type": "address"
        },
        {
          "internalType": "uint256",
          "name": "",
          "type": "uint256"
        }
      ],
      "name": "userRounds",
      "outputs": [
        {
          "internalType": "uint256",
          "name": "",
          "type": "uint256"
        }
      ],
      "stateMutability": "view",
      "type": "function"
    },
    {
      "inputs": [],
      "name": "withdrawAllNative",
      "outputs": [],
      "stateMutability": "nonpayable",
      "type": "function"
    },
    {
      "inputs": [
        {
          "internalType": "address",
          "name": "token",
          "type": "address"
        }
      ],
      "name": "withdrawAllTokens",
      "outputs": [],
      "stateMutability": "nonpayable",
      "type": "function"
    },
    {
      "inputs": [
        {
          "internalType": "uint256",
          "name": "amount",
          "type": "uint256"
        }
      ],
      "name": "withdrawNative",
      "outputs": [],
      "stateMutability": "nonpayable",
      "type": "function"
    },
    {
      "inputs": [
        {
          "internalType": "address",
          "name": "token",
          "type": "address"
        },
        {
          "internalType": "uint256",
          "name": "amount",
          "type": "uint256"
        }
      ],
      "name": "withdrawToken",
      "outputs": [],
      "stateMutability": "nonpayable",
      "type": "function"
    },
    {
      "inputs": [],
      "name": "version",
      "outputs": [
        {
          "internalType": "string",
          "name": "",
          "type": "string"
        }
      ],
      "stateMutability": "pure",
      "type": "function"
    }
  ],
  "bytecode": "0x60a06040523060601b60805234801561001757600080fd5b5060805160601c615a7c6200005360003960008181610ffb0152818161103b015281816115f10152818161163101526116c40152615a7c6000f3fe60806040526004361061038b5760003560e01c80636d4a6308116101dc578063a878aee611610102578063de6553eb116100a0578063f2fde38b1161006f578063f2fde38b14610b2b578063f6d03e3c14610b4b578063f7fdec2814610b62578063f851a44014610b8457600080fd5b8063de6553eb14610ac8578063de6a220714610ae8578063e278fe6f14610aff578063f0deeda614610b1457600080fd5b8063c16b4d71116100dc578063c16b4d7114610a48578063d5309c6014610a68578063dc2932e814610a88578063dd1f759614610aa857600080fd5b8063a878aee6146109da578063b3ab15fb146109fa578063bdc0475914610a1a57600080fd5b806384276d811161017a5780638da5cb5b116101495780638da5cb5b14610937578063951fd600146109555780639e281a9814610983578063a0c7f71c146109a357600080fd5b806384276d811461083d5780638456cb591461085d5780638aee7286146108725780638c65c81f1461089257600080fd5b80637285c58b116101b65780637285c58b1461078b57806376671808146107e657806379c223a9146107fd5780637bf412541461081d57600080fd5b80636d4a630814610736578063704b6c0214610756578063715018a61461077657600080fd5b80633d8df3af116102c157806352d1902d1161025f5780635c975abb1161022e5780635c975abb146106c7578063671107c4146106df57806369171ede146106f45780636bf90c841461071457600080fd5b806352d1902d1461064a57806354fd4d501461065f57806355e3f08614610691578063570ca735146106a657600080fd5b8063482fe0241161029b578063482fe024146105ea5780634d568f8e146105ff5780634f1ef28614610616578063518f49d81461062957600080fd5b80633d8df3af146105a05780633f4ba83a146105c0578063452fd75a146105d557600080fd5b8063290d24941161032e578063368acb0911610308578063368acb0914610519578063379607f5146105305780633948f4c9146105505780633b97e8561461057e57600080fd5b8063290d2494146104c257806330232405146104d95780633659cfe6146104f957600080fd5b8063153f2b4b1161036a578063153f2b4b146103ff5780631f3043eb14610442578063213b14021461046f5780632896f245146104a057600080fd5b80623bdc74146103905780631451334f146103a7578063149611f4146103dc575b600080fd5b34801561039c57600080fd5b506103a5610ba5565b005b3480156103b357600080fd5b506103c76103c236600461527a565b610c7b565b60405190151581526020015b60405180910390f35b3480156103e857600080fd5b506103f1610cd2565b6040519081526020016103d3565b34801561040b57600080fd5b5061043061041a3660046152e6565b61012d6020526000908152604090205460ff1681565b60405160ff90911681526020016103d3565b34801561044e57600080fd5b50610457610d86565b6040516001600160a01b0390911681526020016103d3565b34801561047b57600080fd5b5061043061048a3660046152e6565b6101306020526000908152604090205460ff1681565b3480156104ac57600080fd5b5061013e546103c790600160a81b900460ff1681565b3480156104ce57600080fd5b506103f16101385481565b3480156104e557600080fd5b506103a56104f436600461508b565b610e37565b34801561050557600080fd5b506103a5610514366004614d9c565b610ff0565b34801561052557600080fd5b506103f161013b5481565b34801561053c57600080fd5b506103a561054b36600461527a565b6110d0565b34801561055c57600080fd5b506103f161056b3660046152e6565b61012f6020526000908152604090205481565b34801561058a57600080fd5b5061013f5461043090600160a01b900460ff1681565b3480156105ac57600080fd5b506103a56105bb36600461527a565b6113a5565b3480156105cc57600080fd5b506103c7611410565b3480156105e157600080fd5b506103a56114e0565b3480156105f657600080fd5b506103a56115b1565b34801561060b57600080fd5b506103f16101375481565b6103a5610624366004614e9e565b6115e6565b34801561063557600080fd5b5061013f54610457906001600160a01b031681565b34801561065657600080fd5b506103f16116b7565b34801561066b57600080fd5b50604080518082018252600381526276322160e81b602082015290516103d39190615498565b34801561069d57600080fd5b506103a561176a565b3480156106b257600080fd5b5061013a54610457906001600160a01b031681565b3480156106d357600080fd5b5060335460ff166103c7565b3480156106eb57600080fd5b506103a561199b565b34801561070057600080fd5b506103a561070f3660046150c0565b611b79565b34801561072057600080fd5b50610729611d9c565b6040516103d39190615485565b34801561074257600080fd5b506103a5610751366004614f88565b611e28565b34801561076257600080fd5b506103a5610771366004614d9c565b6125ab565b34801561078257600080fd5b506103a561265e565b34801561079757600080fd5b506107d16107a6366004615293565b6101326020908152600092835260408084209091529082529020600281015460039091015460ff1682565b604080519283529015156020830152016103d3565b3480156107f257600080fd5b506103f16101345481565b34801561080957600080fd5b506103a56108183660046151af565b612694565b34801561082957600080fd5b506103c7610838366004615293565b612ecc565b34801561084957600080fd5b506103a561085836600461527a565b612f47565b34801561086957600080fd5b506103c76130c9565b34801561087e57600080fd5b506103a561088d3660046150c0565b613156565b34801561089e57600080fd5b506108f76108ad36600461527a565b610131602052600090815260409020805460018201546002830154600384015460048501546005860154600690960154949593949293919290919060ff8082169161010090041688565b604080519889526020890197909752958701949094526060860192909252608085015260a0840152151560c083015260ff1660e0820152610100016103d3565b34801561094357600080fd5b5060fb546001600160a01b0316610457565b34801561096157600080fd5b50610975610970366004614f1a565b61336d565b6040516103d3929190615463565b34801561098f57600080fd5b506103a561099e366004614eee565b6134a0565b3480156109af57600080fd5b506109c36109be366004615293565b61360c565b6040805192151583526020830191909152016103d3565b3480156109e657600080fd5b506103a56109f5366004614d9c565b613702565b348015610a0657600080fd5b506103a5610a15366004614d9c565b6137b3565b348015610a2657600080fd5b506103f1610a353660046152e6565b61012e6020526000908152604090205481565b348015610a5457600080fd5b506103a5610a63366004614d9c565b61385f565b348015610a7457600080fd5b506103a5610a8336600461527a565b6138d3565b348015610a9457600080fd5b506103a5610aa3366004614f4f565b6139bd565b348015610ab457600080fd5b506103f1610ac3366004614eee565b613a64565b348015610ad457600080fd5b506103a5610ae336600461511a565b613a96565b348015610af457600080fd5b506103f16101365481565b348015610b0b57600080fd5b506103a5613c06565b348015610b2057600080fd5b506103f16101355481565b348015610b3757600080fd5b506103a5610b46366004614d9c565b613d09565b348015610b5757600080fd5b506103f161013d5481565b348015610b6e57600080fd5b5061013e546103c790600160a01b900460ff1681565b348015610b9057600080fd5b5061013954610457906001600160a01b031681565b610139546001600160a01b03163314610bd95760405162461bcd60e51b8152600401610bd090615684565b60405180910390fd5b600061013b5411610c235760405162461bcd60e51b815260206004820152601460248201527316995c9bc81d1c99585cdd5c9e48185b5bdd5b9d60621b6044820152606401610bd0565b61013b8054600090915561013954610c44906001600160a01b031682613da1565b6040518181527f609175abb7f12481e4f200d1ef4fc834e6caac3d9eadba42d664352f6d0932ca906020015b60405180910390a150565b600081815261013160205260408120600181015415801590610ca05750600281015415155b8015610caf5750806001015442115b8015610ccb5750610137546002820154610cc891613db9565b42105b9392505050565b6000610ce660fb546001600160a01b031690565b6001600160a01b0316336001600160a01b03161480610d105750610139546001600160a01b031633145b80610d26575061013a546001600160a01b031633145b610d7e5760405162461bcd60e51b8152602060048201526024808201527f526f756c657474653a20556e617574686f72697a65642066756e6374696f6e2060448201526318d85b1b60e21b6064820152608401610bd0565b5061013c5490565b6000610d9a60fb546001600160a01b031690565b6001600160a01b0316336001600160a01b03161480610dc45750610139546001600160a01b031633145b80610dda575061013a546001600160a01b031633145b610e265760405162461bcd60e51b815260206004820152601d60248201527f526f756c657474653a20756e617574686f72697a6564206163636573730000006044820152606401610bd0565b5061013e546001600160a01b031690565b610139546001600160a01b03163314610e625760405162461bcd60e51b8152600401610bd090615684565b6101355481600181518110610e7957610e796159af565b602002602001015111158015610eac57506101355481600281518110610ea157610ea16159af565b602002602001015111155b610f335760405162461bcd60e51b815260206004820152604c60248201527f526f756c657474653a206265666f726520656e6420616e64206166746572206560448201527f6e64206275666665722063616e6e6f74206265206d6f7265207468616e20636c60648201526b1bdcd9481a5b9d195c9d985b60a21b608482015260a401610bd0565b80600081518110610f4657610f466159af565b60200260200101516101388190555080600181518110610f6857610f686159af565b60200260200101516101378190555080600281518110610f8a57610f8a6159af565b6020026020010151610136819055507f73d796353bd590c919dfbe2e0ccf50e645f819c0962c64d244b2566e50000c1561013454610138546101375461013654604051610c70949392919093845260208401929092526040830152606082015260800190565b306001600160a01b037f00000000000000000000000000000000000000000000000000000000000000001614156110395760405162461bcd60e51b8152600401610bd090615528565b7f00000000000000000000000000000000000000000000000000000000000000006001600160a01b0316611082600080516020615a00833981519152546001600160a01b031690565b6001600160a01b0316146110a85760405162461bcd60e51b8152600401610bd0906155a9565b6110b181613dc5565b604080516000808252602082019092526110cd91839190613def565b50565b333b156111165760405162461bcd60e51b815260206004820152601460248201527318dbdb9d1c9858dd081b9bdd08185b1b1bddd95960621b6044820152606401610bd0565b3332146111655760405162461bcd60e51b815260206004820152601a60248201527f70726f787920636f6e7472616374206e6f7420616c6c6f7765640000000000006044820152606401610bd0565b600260c95414156111885760405162461bcd60e51b8152600401610bd09061571c565b600260c955600081815261013160205260409020600101546111e05760405162461bcd60e51b8152602060048201526011602482015270149bdd5b99081b9bdd081cdd185c9d1959607a1b6044820152606401610bd0565b6000818152610131602052604090206002015442116112335760405162461bcd60e51b815260206004820152600f60248201526e149bdd5b99081b9bdd08195b991959608a1b6044820152606401610bd0565b60008181526101326020908152604080832033845290915290206003015460ff16156112935760405162461bcd60e51b815260206004820152600f60248201526e14995dd85c991cc818db185a5b5959608a1b6044820152606401610bd0565b6000806112a0833361360c565b9150915081806112b557506112b58333612ecc565b6113015760405162461bcd60e51b815260206004820152601b60248201527f4e6f7420636c61696d61626c65206f7220726566756e6461626c6500000000006044820152606401610bd0565b61130b8333612ecc565b1561133057506000828152610132602090815260408083203384529091529020600201545b600083815261013260209081526040808320338085529252909120600301805460ff191660011790556113639082613da1565b604051818152839033907f34fcbac0073d7c3d388e51312faf357774904998eeb8fca628b9e6f65ee1cbf7906020015b60405180910390a35050600160c95550565b610139546001600160a01b031633146113d05760405162461bcd60e51b8152600401610bd090615684565b61013d8190556101345460408051918252602082018390527f91468f876874ad3a066a452908933a03e2cb1ccfc58171e035732870709bc5039101610c70565b610139546000906001600160a01b0316331461143e5760405162461bcd60e51b8152600401610bd090615684565b60335460ff166114875760405162461bcd60e51b815260206004820152601460248201527314185d5cd8589b194e881b9bdd081c185d5cd95960621b6044820152606401610bd0565b61013e805461ffff60a01b1916905561149e613f69565b7faaa520fdd7d2c83061d632fa017b0432407e798818af63ea908589fceda39ab7610134546040516114d291815260200190565b60405180910390a150600190565b61013a546001600160a01b0316331461150b5760405162461bcd60e51b8152600401610bd0906156a9565b60335460ff161561152e5760405162461bcd60e51b8152600401610bd0906155f5565b61013e54600160a01b900460ff161561157d5760405162461bcd60e51b815260206004820152601160248201527043616e206f6e6c792072756e206f6e636560781b6044820152606401610bd0565b6101345461158c9060016157d1565b61013481905561159b90613ffc565b61013e805460ff60a01b1916600160a01b179055565b610139546001600160a01b031633146115dc5760405162461bcd60e51b8152600401610bd090615684565b476110cd81612f47565b306001600160a01b037f000000000000000000000000000000000000000000000000000000000000000016141561162f5760405162461bcd60e51b8152600401610bd090615528565b7f00000000000000000000000000000000000000000000000000000000000000006001600160a01b0316611678600080516020615a00833981519152546001600160a01b031690565b6001600160a01b03161461169e5760405162461bcd60e51b8152600401610bd0906155a9565b6116a782613dc5565b6116b382826001613def565b5050565b6000306001600160a01b037f000000000000000000000000000000000000000000000000000000000000000016146117575760405162461bcd60e51b815260206004820152603860248201527f555550535570677261646561626c653a206d757374206e6f742062652063616c60448201527f6c6564207468726f7567682064656c656761746563616c6c00000000000000006064820152608401610bd0565b50600080516020615a0083398151915290565b61013a546001600160a01b031633146117955760405162461bcd60e51b8152600401610bd0906156a9565b60335460ff16156117b85760405162461bcd60e51b8152600401610bd0906155f5565b600260c95414156117db5760405162461bcd60e51b8152600401610bd09061571c565b600260c95561013e54600160a01b900460ff1661183a5760405162461bcd60e51b815260206004820152601f60248201527f67656e657369735374617274526f756e64206e6f7420747269676765726564006044820152606401610bd0565b610131600060016101345461184f919061591b565b81526020019081526020016000206002015460001415801561189757506101316000600161013454611881919061591b565b8152602001908152602001600020600201544210155b6118e35760405162461bcd60e51b815260206004820152601d60248201527f526f756c657474653a20526f756e64206e2d31206e6f7420656e6465640000006044820152606401610bd0565b61191f6101385461013160006001610134546118ff919061591b565b81526020019081526020016000206002015461406990919063ffffffff16565b4210156119885760405162461bcd60e51b815260206004820152603160248201527f526f756c657474653a2043616e206f6e6c7920737461727420726f756e642061604482015270333a32b91039ba30b93a10313ab33332b960791b6064820152608401610bd0565b61199461013454613ffc565b600160c955565b61013a546001600160a01b031633146119c65760405162461bcd60e51b8152600401610bd0906156a9565b60335460ff16156119e95760405162461bcd60e51b8152600401610bd0906155f5565b61013e54600160a01b900460ff16611a5d5760405162461bcd60e51b815260206004820152603160248201527f43616e206f6e6c792072756e2061667465722067656e657369735374617274526044820152701bdd5b99081a5cc81d1c9a59d9d95c9959607a1b6064820152608401610bd0565b61013e54600160a81b900460ff1615611aac5760405162461bcd60e51b815260206004820152601160248201527043616e206f6e6c792072756e206f6e636560781b6044820152606401610bd0565b610136546101345460009081526101316020526040902060020154611ad091614069565b421115611b1f5760405162461bcd60e51b815260206004820181905260248201527f43616e206f6e6c7920656e6420726f756e642077697468696e206275666665726044820152606401610bd0565b6000611b29614075565b9050611b3861013454826141da565b611b44610134546142d4565b61013454611b539060016157d1565b610134819055611b6290613ffc565b5061013e805460ff60a81b1916600160a81b179055565b610139546001600160a01b03163314611ba45760405162461bcd60e51b8152600401610bd090615684565b80518251148015611bb757506007825111155b611bd35760405162461bcd60e51b8152600401610bd090615574565b60005b82518160ff161015611d46576007838260ff1681518110611bf957611bf96159af565b602002602001015160ff1610611c215760405162461bcd60e51b8152600401610bd0906154cb565b61012f6000848360ff1681518110611c3b57611c3b6159af565b602002602001015160ff1660ff16815260200190815260200160002054828260ff1681518110611c6d57611c6d6159af565b60200260200101511115611cdc5760405162461bcd60e51b815260206004820152603060248201527f526f756c657474653a206d696e426574416d6f756e742073686f756c6420626560448201526f080f0f481b585e10995d105b5bdd5b9d60821b6064820152608401610bd0565b818160ff1681518110611cf157611cf16159af565b602002602001015161012e6000858460ff1681518110611d1357611d136159af565b602002602001015160ff1660ff168152602001908152602001600020819055508080611d3e90615979565b915050611bd6565b5081604051611d559190615371565b6040518091039020610134547ff383865f73d1e1e26716bfa855d83a847055bfedffd2d12384534744d123813d83604051611d909190615450565b60405180910390a35050565b6040805160078082526101008201909252606091600091906020820160e08036833701905050905060005b60078160ff161015611e225760ff808216600081815261012d602052604090205484519216918491908110611dfe57611dfe6159af565b60ff9092166020928302919091019091015280611e1a81615979565b915050611dc7565b50919050565b60335460ff1615611e4b5760405162461bcd60e51b8152600401610bd0906155f5565b333b15611e915760405162461bcd60e51b815260206004820152601460248201527318dbdb9d1c9858dd081b9bdd08185b1b1bddd95960621b6044820152606401610bd0565b333214611ee05760405162461bcd60e51b815260206004820152601a60248201527f70726f787920636f6e7472616374206e6f7420616c6c6f7765640000000000006044820152606401610bd0565b600260c9541415611f035760405162461bcd60e51b8152600401610bd09061571c565b600260c95561013454611f1590610c7b565b611f565760405162461bcd60e51b8152602060048201526012602482015271526f756e64206e6f74206265747461626c6560701b6044820152606401610bd0565b6101345460009081526101326020908152604080832033845290915290206002015415611fc55760405162461bcd60e51b815260206004820152601b60248201527f43616e206f6e6c7920626574206f6e63652070657220726f756e6400000000006044820152606401610bd0565b6101345460008181526101326020908152604080832033845282528083209383526101319091528120905b83518160ff1610156125235782600001848260ff1681518110612015576120156159af565b6020908102919091018101518254600180820185556000948552938390208251600390920201805460ff191660ff909216919091178155818301518051929491936120669392850192910190614b86565b506040820151816002015550506000848260ff168151811061208a5761208a6159af565b602002602001015160000151905060078160ff16106120bb5760405162461bcd60e51b8152600401610bd0906154cb565b61012e60008260ff1660ff16815260200190815260200160002054858360ff16815181106120eb576120eb6159af565b6020026020010151604001511015801561213f575061012f60008260ff1660ff16815260200190815260200160002054858360ff1681518110612130576121306159af565b60200260200101516040015111155b6121ce5760405162461bcd60e51b815260206004820152605460248201527f526f756c657474653a20416d6f756e74203c204d696e426574416d6f756e742060448201527f6f7220416d6f756e74203e204d6178426574416d6f756e7420666f722061746c60648201527365617374206f6e65206f6620746865206265747360601b608482015260a401610bd0565b60ff8082166000908152610130602052604090205486519082169187919085169081106121fd576121fd6159af565b60200260200101516020015151146122755760405162461bcd60e51b815260206004820152603560248201527f526f756c657474653a20696e76616c696420656e747279206f66206e756d62656044820152741c9cc81a5b88185d1b19585cdd081bdb994818995d605a1b6064820152608401610bd0565b60ff808216600090815261012d6020526040812054909116905b868460ff16815181106122a4576122a46159af565b602002602001015160200151518160ff1610156124925761235c878560ff16815181106122d3576122d36159af565b6020026020010151604001518660070160008a8860ff16815181106122fa576122fa6159af565b6020026020010151602001518560ff168151811061231a5761231a6159af565b602002602001015160ff1660ff16815260200190815260200160002060008560ff1660ff1681526020019081526020016000205461406990919063ffffffff16565b856007016000898760ff1681518110612377576123776159af565b6020026020010151602001518460ff1681518110612397576123976159af565b602002602001015160ff1660ff16815260200190815260200160002060008460ff1660ff1681526020019081526020016000208190555061240d878560ff16815181106123e6576123e66159af565b6020026020010151604001518760010160008a8860ff16815181106122fa576122fa6159af565b866001016000898760ff1681518110612428576124286159af565b6020026020010151602001518460ff1681518110612448576124486159af565b602002602001015160ff1660ff16815260200190815260200160002060008460ff1660ff16815260200190815260200160002081905550808061248a90615979565b91505061228f565b506124ca868460ff16815181106124ab576124ab6159af565b602002602001015160400151866002015461406990919063ffffffff16565b8560020181905550612509868460ff16815181106124ea576124ea6159af565b602002602001015160400151856003015461406990919063ffffffff16565b60038501555081905061251b81615979565b915050611ff0565b50600282015461013f54612546916001600160a01b039091169033903090614454565b33600081815261013360209081526040808320610134805482546001810184559286529390942001919091559054600285015491519092917f3cda8a46c01f73e5c9786fda9e14fb37c87f06fc1ec58dc85a0253034c335cf0916113939188916153c6565b60fb546001600160a01b031633146125d55760405162461bcd60e51b8152600401610bd09061564f565b6001600160a01b0381166125fb5760405162461bcd60e51b8152600401610bd09061561f565b61013980546001600160a01b038381166001600160a01b031983168117909355604080519190921680825260208201939093527f7e644d79422f17c01e4894b5f4f588d331ebfa28653d42ae832dc59e38c9798f91015b60405180910390a15050565b60fb546001600160a01b031633146126885760405162461bcd60e51b8152600401610bd09061564f565b61269260006144c5565b565b600054610100900460ff166126af5760005460ff16156126b3565b303b155b6127165760405162461bcd60e51b815260206004820152602e60248201527f496e697469616c697a61626c653a20636f6e747261637420697320616c72656160448201526d191e481a5b9a5d1a585b1a5e995960921b6064820152608401610bd0565b600054610100900460ff16158015612738576000805461ffff19166101011790555b612740614517565b612748614546565b612750614575565b61277382600081518110612766576127666159af565b6020026020010151613d09565b81600181518110612786576127866159af565b602002602001015161013960006101000a8154816001600160a01b0302191690836001600160a01b03160217905550816002815181106127c8576127c86159af565b60209081029190910181015161013a80546001600160a01b039092166001600160a01b031990921691909117905561013e805461ffff60a01b191690557f363eca0a79dc8ec297995f86b12cc61391ff0de52f1ba01ca23e9716f742e413805460ff199081166012179091557fe2b6217f4c97aa68f5160f7d6659df601bbb6b6328ba78b8ab41ee5c6e7d7a5980548216600c1790557fea19767d888507d04480e03c5531fa09d724e33807f1d26eef5602518076ecd08054821660069081179091557f3122fe5b7d531425375ebfbec0198c35c854cd3c1f71c808c2cc488a3513b22b8054831660041790557faabcafbbeb8d2dab90059ed5ad988783878c7575541ea9b716c257cfc1cdcfef8054831660031790557f83a5379495bafbb8928e1d214d457380d68533cfd67f128d8c6479903eaf4d6e8054831660029081179091557fe4e0b48a604c6350c5e15d99f1e3d11b362e568ca22e631032d954164ef4560180548416600190811790915561012d85527fa581b17bfc4d6578e300cafbf34fd2dc1fef0270d8c73f88a99dcde2859a66398054851690911790557fe278171178ecf2583e4e9c73c9a18d3ff0f6142f8f9926be1eba7c0b61591f508054841690911790557fb114c5a84345a4dcec681cd96c82d9999793302158b218b3096e60eca235e2db8054831660051790557fd9495049dee3e6934b44f75a365d1637a19c5c4a773e43815c83fd58cdf50cb48054831660081790557f2649c796d0213cd7ab10b062403086fe4f7a383b9238e208d2820d607d6f2bdb80548316600b1790557fac00419b81cd86b3479ac535027b5e2eee48e4a3b36c57fd9df5dcdd56a566c080548316601117905560009081527f4e458acb45f190090eb5efcba2667a10ede10f4976f4888ff786677a10db46b28054909216602317909155845190918291829160609183918291612a8b91908b018101908b01614db9565b61013f80546001600160a01b038881166001600160a81b031990921691909117600160a01b60ff8916021790915561013e80546001600160a01b0319169183169190911790556101358490558251959b509399509197509550935091508390600090612af957612af96159af565b60200260200101516101388190555082600181518110612b1b57612b1b6159af565b60200260200101516101378190555082600281518110612b3d57612b3d6159af565b60209081029190910101516101365561013d829055612b5d85600a615851565b6000805261012e6020527f05487a880b40ff61e5c065c22c3608319ddddfc383570aaf3e5899db942a555e55612b9485600a615851565b600160005261012e6020527f78e0405325e9e59eff68beeb0258e598ac7e6900874305b6bed7bce1fce6e25155612bcc85600a615851565b600260005261012e6020527f400769d5c29c672818e686949d361a922486399787bf7ace9efee61b64613dea55612c0485600a615851565b600360005261012e6020527fccb78303f1061eb3b75ee3d649f730d5a119aee255fe5d8fe5a197dcd27df65255612c3c85600a615851565b600460005261012e6020527fa135932be7035866fe2486eaf59b5fcdb540af50eae05b6087a7066fe7aee3d255612c7485600a615851565b600560005261012e6020527f7b5e2a2921fcee941ffcb62b67b9dfc1ae9224791915bb37e5756beaeab86a7d55612cac85600a615851565b600660005261012e6020527f9047bba89121e89e5d86e8366afbc408a290f8c69e73c300bcf01a4dec5b779b55612ce485600a615851565b612cef9060646158fc565b6000805261012f6020527fe9104285c6851efcbc5e0e70440200efbdcab556a1c8784776780f8bb44f293155612d2685600a615851565b612d319060506158fc565b600160005261012f6020527fd827e4f4260d40048f690f58ae5d0afff32b544267edbfaaef2e1c102dc5f5c155612d6985600a615851565b612d749060466158fc565b600260005261012f6020527f45bd7956d702ab226b2ba8d73529129b53840efd6db995e5e24bc4d00e35a1d355612dac85600a615851565b612db790603c6158fc565b600360005261012f6020527faee696e4ea6149c4993ab9cbc96504dd0850cd761ef42abf7bfafdbc33b9654955612def85600a615851565b612dfa9060326158fc565b600460005261012f6020527fd71fc07ac1b855f4bfafcd08655d852fd426078e4b32e202f861559f1174e48955612e3285600a615851565b612e3d9060286158fc565b600560005261012f6020527f20fd249e5d517468f2e74cf2ee0ac2ba2eb70c24d387a5d12699a176fe68d06455612e7585600a615851565b612e809060146158fc565b600660005261012f6020527fd5ba6804aba8ecb2419820729d01f268901f5d94bec07b046c2e3e83baa22f1d55505084159350612ec792505050576000805461ff00191690555b505050565b6000828152610131602052604081206006015460ff16158015612f0d57506101365460008481526101316020526040902060020154612f0a91614069565b42115b8015612f3e57506000838152610132602090815260408083206001600160a01b038616845290915290206002015415155b90505b92915050565b610139546001600160a01b03163314612f725760405162461bcd60e51b8152600401610bd090615684565b4781811015612fd85760405162461bcd60e51b815260206004820152602c60248201527f62616c616e616365206f66206e617469766520746f6b656e20696e20636f6e7460448201526b7261637420746f6f206c6f7760a01b6064820152608401610bd0565b610139546040516000916001600160a01b03169084908381818185875af1925050503d8060008114613026576040519150601f19603f3d011682016040523d82523d6000602084013e61302b565b606091505b505090508061307c5760405162461bcd60e51b815260206004820181905260248201527f4661696c75726520696e206e617469766520746f6b656e207472616e736665726044820152606401610bd0565b61013954604080516001600160a01b039092168252602082018590527f2c876ecb97b3c6854f2488d373403f903eacb800e51c159a5c0c7a9c857e482791015b60405180910390a1505050565b610139546000906001600160a01b031633146130f75760405162461bcd60e51b8152600401610bd090615684565b60335460ff161561311a5760405162461bcd60e51b8152600401610bd0906155f5565b6131226145a4565b7f68b095021b1f40fe513109f513c66692f0b3219aee674a69f4efc57badb8201d610134546040516114d291815260200190565b610139546001600160a01b031633146131815760405162461bcd60e51b8152600401610bd090615684565b8051825114801561319457506007825111155b6131b05760405162461bcd60e51b8152600401610bd090615574565b60005b82518160ff161015613323576007838260ff16815181106131d6576131d66159af565b602002602001015160ff16106131fe5760405162461bcd60e51b8152600401610bd0906154cb565b818160ff1681518110613213576132136159af565b602002602001015161012e6000858460ff1681518110613235576132356159af565b602002602001015160ff1660ff1681526020019081526020016000205411156132b95760405162461bcd60e51b815260206004820152603060248201527f526f756c657474653a206d6178426574416d6f756e742073686f756c6420626560448201526f080f8f481b5a5b90995d105b5bdd5b9d60821b6064820152608401610bd0565b818160ff16815181106132ce576132ce6159af565b602002602001015161012f6000858460ff16815181106132f0576132f06159af565b602002602001015160ff1660ff16815260200190815260200160002081905550808061331b90615979565b9150506131b3565b50816040516133329190615371565b6040518091039020610134547f1bf01708b01fba47c22be28c252449ffc7f82e1648a328568dfe7e5627443ea783604051611d909190615450565b6001600160a01b0383166000908152610133602052604081205460609190839061339890869061591b565b8111156133c7576001600160a01b038616600090815261013360205260409020546133c490869061591b565b90505b60008167ffffffffffffffff8111156133e2576133e26159c5565b60405190808252806020026020018201604052801561340b578160200160208202803683370190505b50905060005b82811015613486576001600160a01b03881660009081526101336020526040902061343c82896157d1565b8154811061344c5761344c6159af565b9060005260206000200154828281518110613469576134696159af565b60209081029190910101528061347e8161595e565b915050613411565b508061349283886157d1565b935093505050935093915050565b610139546001600160a01b031633146134cb5760405162461bcd60e51b8152600401610bd090615684565b6040516370a0823160e01b81523060048201526000906001600160a01b038416906370a082319060240160206040518083038186803b15801561350d57600080fd5b505afa158015613521573d6000803e3d6000fd5b505050506040513d601f19601f820116820180604052508101906135459190615196565b9050818110156135a55760405162461bcd60e51b815260206004820152602560248201527f62616c616e616365206f6620746f6b656e20696e20636f6e747261637420746f6044820152646f206c6f7760d81b6064820152608401610bd0565b610139546135c0906001600160a01b038581169116846145fc565b61013954604080516001600160a01b039283168152918516602083015281018390527f42856d0378dde02337bb59ae41747abc77ded8ebdbbc5cbdd1e53693b7554938906060016130bc565b6000828152610132602090815260408083206001600160a01b03851684528252808320858452610131909252822060060154829190610100900460ff1682805b60078160ff1610156136d35760ff808216600090815261012d60205260409020546136bf916136b891613681911660016157e9565b60ff86811660009081526001890160209081526040808320888516845261012d83528184205485168452909152902054911661462c565b8390614069565b9150806136cb81615979565b91505061364c565b506000878152610131602052604090206006015460ff1680156136f65750600081115b97909650945050505050565b610139546001600160a01b0316331461372d5760405162461bcd60e51b8152600401610bd090615684565b6040516370a0823160e01b81523060048201526000906001600160a01b038316906370a082319060240160206040518083038186803b15801561376f57600080fd5b505afa158015613783573d6000803e3d6000fd5b505050506040513d601f19601f820116820180604052508101906137a79190615196565b90506116b382826134a0565b610139546001600160a01b031633146137de5760405162461bcd60e51b8152600401610bd090615684565b6001600160a01b0381166138045760405162461bcd60e51b8152600401610bd09061561f565b61013a80546001600160a01b038381166001600160a01b031983168117909355604080519190921680825260208201939093527fd58299b712891143e76310d5e664c4203c940a67db37cf856bdaa3c5c76a802c9101612652565b610139546001600160a01b0316331461388a5760405162461bcd60e51b8152600401610bd090615684565b6001600160a01b0381166138b05760405162461bcd60e51b8152600401610bd09061561f565b61013e80546001600160a01b0319166001600160a01b0392909216919091179055565b610139546001600160a01b031633146138fe5760405162461bcd60e51b8152600401610bd090615684565b8061013654111580156139145750806101375411155b61397d5760405162461bcd60e51b815260206004820152603460248201527f526f756c657474653a20627566666572732063616e6e6f74206265206d6f7265604482015273081d1a185b8818db1bdcd9481a5b9d195c9d985b60621b6064820152608401610bd0565b6101358190556101345460408051918252602082018390527fa56ca41029958c8d980e1c2782e4d311bd9e59c30bf9c62c453821b63b01d85b9101610c70565b610139546001600160a01b031633146139e85760405162461bcd60e51b8152600401610bd090615684565b61013f805460ff8316600160a01b026001600160a81b03199091166001600160a01b03851617179055610134546040517f39174ed3ef40bb292fb095c08f402d540199c39784206653ddf0554dc6d5bb839161265291859085909283526001600160a01b0391909116602083015260ff16604082015260600190565b6101336020528160005260406000208181548110613a8157600080fd5b90600052602060002001600091509150505481565b610139546001600160a01b03163314613ac15760405162461bcd60e51b8152600401610bd090615684565b80518251148015613ad457506007825111155b613af05760405162461bcd60e51b8152600401610bd090615574565b60005b82518160ff161015613bbc576007838260ff1681518110613b1657613b166159af565b602002602001015160ff1610613b3e5760405162461bcd60e51b8152600401610bd0906154cb565b818160ff1681518110613b5357613b536159af565b602002602001015161012d6000858460ff1681518110613b7557613b756159af565b602002602001015160ff1660ff16815260200190815260200160002060006101000a81548160ff021916908360ff1602179055508080613bb490615979565b915050613af3565b5081604051613bcb9190615371565b6040518091039020610134547f839f4167982dee86a4b2494ef5559f483b9747ccdebba512b9851a154a146b2c83604051611d909190615485565b61013a546001600160a01b03163314613c315760405162461bcd60e51b8152600401610bd0906156a9565b60335460ff1615613c545760405162461bcd60e51b8152600401610bd0906155f5565b61013e54600160a01b900460ff168015613c78575061013e54600160a81b900460ff165b613cce5760405162461bcd60e51b815260206004820152602160248201527f43616e206f6e6c792072756e2061667465722067656e6573697320726f756e646044820152607360f81b6064820152608401610bd0565b6000613cd8614075565b9050613ce761013454826141da565b613cf3610134546142d4565b61013454613d029060016157d1565b6101345550565b60fb546001600160a01b03163314613d335760405162461bcd60e51b8152600401610bd09061564f565b6001600160a01b038116613d985760405162461bcd60e51b815260206004820152602660248201527f4f776e61626c653a206e6577206f776e657220697320746865207a65726f206160448201526564647265737360d01b6064820152608401610bd0565b6110cd816144c5565b61013f546116b3906001600160a01b031683836145fc565b6000612f3e828461591b565b60fb546001600160a01b031633146110cd5760405162461bcd60e51b8152600401610bd09061564f565b7f4910fdfa16fed3260ed0e7147f7cc6da11a60208b5b9406d12a635614ffd91435460ff1615613e2257612ec783614638565b826001600160a01b03166352d1902d6040518163ffffffff1660e01b815260040160206040518083038186803b158015613e5b57600080fd5b505afa925050508015613e8b575060408051601f3d908101601f19168201909252613e8891810190615196565b60015b613eee5760405162461bcd60e51b815260206004820152602e60248201527f45524331393637557067726164653a206e657720696d706c656d656e7461746960448201526d6f6e206973206e6f74205555505360901b6064820152608401610bd0565b600080516020615a008339815191528114613f5d5760405162461bcd60e51b815260206004820152602960248201527f45524331393637557067726164653a20756e737570706f727465642070726f786044820152681a58589b195555525160ba1b6064820152608401610bd0565b50612ec78383836146d4565b60335460ff16613fb25760405162461bcd60e51b815260206004820152601460248201527314185d5cd8589b194e881b9bdd081c185d5cd95960621b6044820152606401610bd0565b6033805460ff191690557f5db9ee0a495bf2e6ff9c91a7834c1ba4fdd244a5e8aa4e537bd38aeae4b073aa335b6040516001600160a01b03909116815260200160405180910390a1565b6000818152610131602052604090204260018201819055610135546140219190614069565b60028201558181556000600382015560405142815282907f0e5543feb86a4cd302f2b88b26c42be2d1673013a34e1f98bd6d524dd3b4ab419060200160405180910390a25050565b6000612f3e82846157d1565b60008061408e61013d544261406990919063ffffffff16565b61013e54604051639bbf750160e01b815260256004820152919250600091829182916001600160a01b0390911690639bbf750190602401606060405180830381600087803b1580156140df57600080fd5b505af11580156140f3573d6000803e3d6000fd5b505050506040513d601f19601f8201168201806040525081019061411791906152b8565b925092509250838111156141795760405162461bcd60e51b8152602060048201526024808201527f4f7261636c6520757064617465206578636565646564206d617820616c6c6f77604482015263616e636560e01b6064820152608401610bd0565b61013c548310156141cc5760405162461bcd60e51b815260206004820152601e60248201527f4f7261636c652075706461746520726f756e644964203c206f6c6420696400006044820152606401610bd0565b5061013c9190915592915050565b6000828152610131602052604090206001015461422f5760405162461bcd60e51b81526020600482015260136024820152721c9bdd5b9908191bd95cdb89dd08195e1a5cdd606a1b6044820152606401610bd0565b6000828152610131602052604090206002015442108015906142705750610136546000838152610131602052604090206002015461426c91614069565b4211155b6142ca5760405162461bcd60e51b815260206004820152602560248201527f43616e206f6e6c7920656e64206265747765656e20656e6454696d65202620626044820152643ab33332b960d91b6064820152608401610bd0565b6116b382826146f9565b60008181526101316020526040902060040154156143295760405162461bcd60e51b815260206004820152601260248201527114995dd85c991cc818d85b18dd5b185d195960721b6044820152606401610bd0565b6000818152610131602052604081206006810154909161010090910460ff169080805b60078160ff1610156143d35760ff808216600090815261012d60205260409020546143bf916143b891614381911660016157e9565b60ff878116600090815260078a0160209081526040808320888516845261012d83528184205485168452909152902054911661462c565b8490614069565b9250806143cb81615979565b91505061434c565b506004840182905560038401548210156143f95760038401546143f69083613db9565b90505b6005840181905561013b5461440e9082614069565b61013b55604080518381526020810183905286917fbf435c36ecef852914f1b871bbd6afcd79dd1d2311fb9b824711cbe7345bdaed910160405180910390a25050505050565b6040516001600160a01b03808516602483015283166044820152606481018290526144bf9085906323b872dd60e01b906084015b60408051601f198184030181529190526020810180516001600160e01b03166001600160e01b031990931692909217909152614775565b50505050565b60fb80546001600160a01b038381166001600160a01b0319831681179093556040519116919082907f8be0079c531659141344cd1fd0a4f28419497f9722a3daafe3b4186f6b6457e090600090a35050565b600054610100900460ff1661453e5760405162461bcd60e51b8152600401610bd0906156d1565b612692614847565b600054610100900460ff1661456d5760405162461bcd60e51b8152600401610bd0906156d1565b612692614877565b600054610100900460ff1661459c5760405162461bcd60e51b8152600401610bd0906156d1565b6126926148aa565b60335460ff16156145c75760405162461bcd60e51b8152600401610bd0906155f5565b6033805460ff191660011790557f62e78cea01bee320cd4e420270b5ea74000d11b0c9f74754ebdbfc544b05a258613fdf3390565b6040516001600160a01b038316602482015260448101829052612ec790849063a9059cbb60e01b90606401614488565b6000612f3e82846158fc565b6001600160a01b0381163b6146a55760405162461bcd60e51b815260206004820152602d60248201527f455243313936373a206e657720696d706c656d656e746174696f6e206973206e60448201526c1bdd08184818dbdb9d1c9858dd609a1b6064820152608401610bd0565b600080516020615a0083398151915280546001600160a01b0319166001600160a01b0392909216919091179055565b6146dd836148d1565b6000825111806146ea5750805b15612ec7576144bf8383614911565b600082815261013160205260409081902060068101805460ff1960ff8616610100021661ffff19909116176001179055905183907fe3289c928d9f6db46506af1f4c4368207b99bda84dad46a6b2151f47d30a124090614768904290869091825260ff16602082015260400190565b60405180910390a2505050565b60006147ca826040518060400160405280602081526020017f5361666545524332303a206c6f772d6c6576656c2063616c6c206661696c6564815250856001600160a01b0316614a059092919063ffffffff16565b805190915015612ec757808060200190518101906147e89190615174565b612ec75760405162461bcd60e51b815260206004820152602a60248201527f5361666545524332303a204552433230206f7065726174696f6e20646964206e6044820152691bdd081cdd58d8d9595960b21b6064820152608401610bd0565b600054610100900460ff1661486e5760405162461bcd60e51b8152600401610bd0906156d1565b612692336144c5565b600054610100900460ff1661489e5760405162461bcd60e51b8152600401610bd0906156d1565b6033805460ff19169055565b600054610100900460ff166119945760405162461bcd60e51b8152600401610bd0906156d1565b6148da81614638565b6040516001600160a01b038216907fbc7cd75a20ee27fd9adebab32041f755214dbc6bffa90cc0225b39da2e5c2d3b90600090a250565b60606001600160a01b0383163b6149795760405162461bcd60e51b815260206004820152602660248201527f416464726573733a2064656c65676174652063616c6c20746f206e6f6e2d636f6044820152651b9d1c9858dd60d21b6064820152608401610bd0565b600080846001600160a01b03168460405161499491906153aa565b600060405180830381855af49150503d80600081146149cf576040519150601f19603f3d011682016040523d82523d6000602084013e6149d4565b606091505b50915091506149fc8282604051806060016040528060278152602001615a2060279139614a1c565b95945050505050565b6060614a148484600085614a55565b949350505050565b60608315614a2b575081610ccb565b825115614a3b5782518084602001fd5b8160405162461bcd60e51b8152600401610bd09190615498565b606082471015614ab65760405162461bcd60e51b815260206004820152602660248201527f416464726573733a20696e73756666696369656e742062616c616e636520666f6044820152651c8818d85b1b60d21b6064820152608401610bd0565b6001600160a01b0385163b614b0d5760405162461bcd60e51b815260206004820152601d60248201527f416464726573733a2063616c6c20746f206e6f6e2d636f6e74726163740000006044820152606401610bd0565b600080866001600160a01b03168587604051614b2991906153aa565b60006040518083038185875af1925050503d8060008114614b66576040519150601f19603f3d011682016040523d82523d6000602084013e614b6b565b606091505b5091509150614b7b828286614a1c565b979650505050505050565b82805482825590600052602060002090601f01602090048101928215614c1c5791602002820160005b83821115614bed57835183826101000a81548160ff021916908360ff1602179055509260200192600101602081600001049283019260010302614baf565b8015614c1a5782816101000a81549060ff0219169055600101602081600001049283019260010302614bed565b505b50614c28929150614c2c565b5090565b5b80821115614c285760008155600101614c2d565b8051614c4c816159db565b919050565b600082601f830112614c6257600080fd5b81356020614c77614c72836157ad565b61577c565b80838252828201915082860187848660051b8901011115614c9757600080fd5b60005b85811015614cb657813584529284019290840190600101614c9a565b5090979650505050505050565b600082601f830112614cd457600080fd5b81356020614ce4614c72836157ad565b80838252828201915082860187848660051b8901011115614d0457600080fd5b60005b85811015614cb6578135614d1a816159f0565b84529284019290840190600101614d07565b600082601f830112614d3d57600080fd5b813567ffffffffffffffff811115614d5757614d576159c5565b614d6a601f8201601f191660200161577c565b818152846020838601011115614d7f57600080fd5b816020850160208301376000918101602001919091529392505050565b600060208284031215614dae57600080fd5b8135610ccb816159db565b60008060008060008060c08789031215614dd257600080fd5b8651614ddd816159db565b80965050602080880151614df0816159f0565b604089015160608a0151919750955067ffffffffffffffff811115614e1457600080fd5b8801601f81018a13614e2557600080fd5b8051614e33614c72826157ad565b8082825284820191508484018d868560051b8701011115614e5357600080fd5b600094505b83851015614e76578051835260019490940193918501918501614e58565b50809750505050505060808701519150614e9260a08801614c41565b90509295509295509295565b60008060408385031215614eb157600080fd5b8235614ebc816159db565b9150602083013567ffffffffffffffff811115614ed857600080fd5b614ee485828601614d2c565b9150509250929050565b60008060408385031215614f0157600080fd5b8235614f0c816159db565b946020939093013593505050565b600080600060608486031215614f2f57600080fd5b8335614f3a816159db565b95602085013595506040909401359392505050565b60008060408385031215614f6257600080fd5b8235614f6d816159db565b91506020830135614f7d816159f0565b809150509250929050565b60006020808385031215614f9b57600080fd5b823567ffffffffffffffff80821115614fb357600080fd5b818501915085601f830112614fc757600080fd5b8135614fd5614c72826157ad565b80828252858201915085850189878560051b8801011115614ff557600080fd5b60005b8481101561507c5781358681111561500f57600080fd5b87016060818d03601f190181131561502657600080fd5b61502e615753565b8a83013561503b816159f0565b815260408301358981111561504f57600080fd5b61505d8f8d83870101614cc3565b828d015250910135604082015284529287019290870190600101614ff8565b50909998505050505050505050565b60006020828403121561509d57600080fd5b813567ffffffffffffffff8111156150b457600080fd5b614a1484828501614c51565b600080604083850312156150d357600080fd5b823567ffffffffffffffff808211156150eb57600080fd5b6150f786838701614cc3565b9350602085013591508082111561510d57600080fd5b50614ee485828601614c51565b6000806040838503121561512d57600080fd5b823567ffffffffffffffff8082111561514557600080fd5b61515186838701614cc3565b9350602085013591508082111561516757600080fd5b50614ee485828601614cc3565b60006020828403121561518657600080fd5b81518015158114610ccb57600080fd5b6000602082840312156151a857600080fd5b5051919050565b600080604083850312156151c257600080fd5b823567ffffffffffffffff808211156151da57600080fd5b6151e686838701614d2c565b93506020915081850135818111156151fd57600080fd5b85019050601f8101861361521057600080fd5b803561521e614c72826157ad565b80828252848201915084840189868560051b870101111561523e57600080fd5b600094505b8385101561526a578035615256816159db565b835260019490940193918501918501615243565b5080955050505050509250929050565b60006020828403121561528c57600080fd5b5035919050565b600080604083850312156152a657600080fd5b823591506020830135614f7d816159db565b6000806000606084860312156152cd57600080fd5b8351925060208401519150604084015190509250925092565b6000602082840312156152f857600080fd5b8135610ccb816159f0565b600081518084526020808501945080840160005b8381101561533357815187529582019590820190600101615317565b509495945050505050565b600081518084526020808501945080840160005b8381101561533357815160ff1687529582019590820190600101615352565b815160009082906020808601845b8381101561539e57815160ff168552938201939082019060010161537f565b50929695505050505050565b600082516153bc818460208701615932565b9190910192915050565b60006040808301818452808651808352606092508286019150828160051b8701016020808a0160005b8481101561543b57605f198a8503018652815160ff815116855283810151888587015261541e8987018261533e565b918a0151958a0195909552958301959350908201906001016153ef565b50509690960196909652509295945050505050565b602081526000612f3e6020830184615303565b6040815260006154766040830185615303565b90508260208301529392505050565b602081526000612f3e602083018461533e565b60208152600082518060208401526154b7816040850160208701615932565b601f01601f19169190910160400192915050565b6020808252603b908201527f526f756c657474653a2062657454797065732063616e2072616e67652062657460408201527f7765656e203020616e64203628696e636c7564656429206f6e6c790000000000606082015260800190565b6020808252602c908201527f46756e6374696f6e206d7573742062652063616c6c6564207468726f7567682060408201526b19195b1959d85d1958d85b1b60a21b606082015260800190565b6020808252818101527f526f756c657474653a204172726179206c656e67746873206d69736d61746368604082015260600190565b6020808252602c908201527f46756e6374696f6e206d7573742062652063616c6c6564207468726f7567682060408201526b6163746976652070726f787960a01b606082015260800190565b60208082526010908201526f14185d5cd8589b194e881c185d5cd95960821b604082015260600190565b60208082526016908201527543616e6e6f74206265207a65726f206164647265737360501b604082015260600190565b6020808252818101527f4f776e61626c653a2063616c6c6572206973206e6f7420746865206f776e6572604082015260600190565b6020808252600b908201526a61646d696e3a207775743f60a81b604082015260600190565b6020808252600e908201526d6f70657261746f723a207775743f60901b604082015260600190565b6020808252602b908201527f496e697469616c697a61626c653a20636f6e7472616374206973206e6f74206960408201526a6e697469616c697a696e6760a81b606082015260800190565b6020808252601f908201527f5265656e7472616e637947756172643a207265656e7472616e742063616c6c00604082015260600190565b6040516060810167ffffffffffffffff81118282101715615776576157766159c5565b60405290565b604051601f8201601f1916810167ffffffffffffffff811182821017156157a5576157a56159c5565b604052919050565b600067ffffffffffffffff8211156157c7576157c76159c5565b5060051b60200190565b600082198211156157e4576157e4615999565b500190565b600060ff821660ff84168060ff0382111561580657615806615999565b019392505050565b600181815b8085111561584957816000190482111561582f5761582f615999565b8085161561583c57918102915b93841c9390800290615813565b509250929050565b6000612f3e60ff84168360008261586a57506001612f41565b8161587757506000612f41565b816001811461588d5760028114615897576158b3565b6001915050612f41565b60ff8411156158a8576158a8615999565b50506001821b612f41565b5060208310610133831016604e8410600b84101617156158d6575081810a612f41565b6158e0838361580e565b80600019048211156158f4576158f4615999565b029392505050565b600081600019048311821515161561591657615916615999565b500290565b60008282101561592d5761592d615999565b500390565b60005b8381101561594d578181015183820152602001615935565b838111156144bf5750506000910152565b600060001982141561597257615972615999565b5060010190565b600060ff821660ff81141561599057615990615999565b60010192915050565b634e487b7160e01b600052601160045260246000fd5b634e487b7160e01b600052603260045260246000fd5b634e487b7160e01b600052604160045260246000fd5b6001600160a01b03811681146110cd57600080fd5b60ff811681146110cd57600080fdfe360894a13ba1a3210667c828492db98dca3e2076cc3735a920a3ca505d382bbc416464726573733a206c6f772d6c6576656c2064656c65676174652063616c6c206661696c6564a2646970667358221220a01a28d5f65fec7410ec0afec676c2dd87374559bc2c6290f73f80a294e4cb1864736f6c63430008060033",
  "immutableReferences": {
    "617": [
      {
        "length": 32,
        "start": 4091
      },
      {
        "length": 32,
        "start": 4155
      },
      {
        "length": 32,
        "start": 5617
      },
      {
        "length": 32,
        "start": 5681
      },
      {
        "length": 32,
        "start": 5828
      }
    ]
  },
  "source": "// SPDX-License-Identifier: MIT\r\n\r\npragma solidity ^0.8.5;\r\n\r\nimport \"@openzeppelin/contracts-upgradeable/proxy/utils/UUPSUpgradeable.sol\";\r\nimport \"@openzeppelin/contracts-upgradeable/security/ReentrancyGuardUpgradeable.sol\";\r\nimport \"@openzeppelin/contracts-upgradeable/access/OwnableUpgradeable.sol\";\r\nimport \"@openzeppelin/contracts-upgradeable/security/PausableUpgradeable.sol\";\r\nimport \"@openzeppelin/contracts-upgradeable/utils/math/SafeMathUpgradeable.sol\";\r\nimport \"@openzeppelin/contracts-upgradeable/token/ERC20/utils/SafeERC20Upgradeable.sol\";\r\nimport \"./interfaces/IRandomGenerator.sol\";\r\n\r\ncontract Roulette is \r\n    Initializable,\r\n    PausableUpgradeable,\r\n    UUPSUpgradeable,\r\n    ReentrancyGuardUpgradeable,\r\n    OwnableUpgradeable\r\n{\r\n    using SafeMathUpgradeable for uint256;\r\n    using SafeERC20Upgradeable for IERC20Upgradeable;\r\n\r\n    struct Round {\r\n        uint256 epoch;\r\n        uint256 startTime;\r\n        uint256 endTime;\r\n        uint256 totalAmountBet;\r\n        uint256 totalRewardAmount;\r\n        uint256 treasuryCollections;\r\n        bool oracleCalled;\r\n        uint8 winningNumber;\r\n        // the amount put on a number with a slab\r\n        // totalAmountInSlabs[number][slab] = total amount bet on that number in a slab\r\n        mapping(uint8 => mapping(uint8 => uint256)) totalAmountInSlabs;\r\n    }\r\n\r\n    /** \r\n    * @dev BetTypes\r\n    * 0 for RedBlack, OddEven, HighLow => 18 numbers and reward = 1x the amount bet\r\n    * 1 for Columns, Dozens => 12 numbers and reward = 2x the amount bet\r\n    * 2 for Line => 6 numbers and reward = 5x the amount bet\r\n    * 3 for Corner => 4 numbers and reward = 8x the amount bet\r\n    * 4 for Street, ThreeNumBetsWithZero => 3 numbers and reward = 11x the amount bet\r\n    * 5 for Split => 2 numbers and reward = 17x the amount bet\r\n    * 6 for Number => 1 number and reward = 35x the amount bet\r\n    */\r\n    \r\n    struct Bet{\r\n        uint8 betType;\r\n        uint8[] numbers;\r\n        uint256 amount;\r\n    }\r\n\r\n    struct BetInfo {\r\n        Bet[] bets;\r\n        //the amount put on a number with a slab\r\n        // AmountInSlabs[number][slab] = total amount bet on that number in a slab\r\n        mapping(uint8 => mapping(uint8 => uint256)) amountInSlabs;\r\n        uint256 totalAmount;\r\n        bool claimed;\r\n    }\r\n\r\n    //Payout, MinBetAmount, MaxBetAmount by BetType\r\n    mapping(uint8 => uint8) public payout;\r\n    mapping(uint8 => uint256) public minBetAmount;\r\n    mapping(uint8 => uint256) public maxBetAmount;\r\n    //For each kind of bet, the required number of numbers to be bet on\r\n    mapping(uint8 => uint8) public numbersByKindOfBet;\r\n    //Round by roundId\r\n    mapping(uint256 => Round) public rounds;\r\n    //BetInfo by roundId and user\r\n    mapping(uint256 => mapping(address => BetInfo)) public ledger;\r\n    //roundIds in which user participated \r\n    mapping(address => uint256[]) public userRounds;\r\n    \r\n    uint256 public currentEpoch;\r\n    uint256 public closeInterval;\r\n    uint256 public afterEndBuffer;\r\n    uint256 public beforeEndBuffer;\r\n    uint256 public startBuffer;\r\n    address public admin;\r\n    address public operator;\r\n    uint256 public treasuryAmount;\r\n    uint256 private randomRoundId;\r\n\r\n    uint256 public randomNumUpdateAllowance; // seconds\r\n    IRandomGenerator private randomGenerator;\r\n\r\n    bool public genesisStartOnce;\r\n    bool public genesisEndOnce;\r\n\r\n    //Token which is used for betting\r\n    address public tokenStaked;\r\n    uint8 public tokenDecimals;\r\n\r\n    event StartRound(uint256 indexed epoch, uint256 time);\r\n    event EndRound(uint256 indexed epoch, uint256 time, uint8 winnningNum);\r\n    event Bets(\r\n        Bet[] bets,\r\n        address indexed sender,\r\n        uint256 indexed currentEpoch,\r\n        uint256 totalAmount\r\n    );\r\n    event Claim(\r\n        address indexed sender,\r\n        uint256 indexed currentEpoch,\r\n        uint256 amount\r\n    );\r\n    event ClaimTreasury(uint256 amount);\r\n    event PayoutUpdated(\r\n        uint256 indexed epoch,\r\n        uint8[] indexed betType,\r\n        uint8[] payout\r\n    );\r\n    event MinBetAmountUpdated(\r\n        uint256 indexed epoch,\r\n        uint8[] indexed betType, \r\n        uint256[] minBetAmount\r\n        );\r\n    event MaxBetAmountUpdated(\r\n        uint256 indexed epoch,\r\n        uint8[] indexed betType, \r\n        uint256[] maxBetAmount\r\n        );\r\n    event RewardsCalculated(\r\n        uint256 indexed epoch,\r\n        uint256 rewardAmount,\r\n        uint256 treasuryAmount\r\n    );\r\n    event Pause(uint256 epoch);\r\n    event Unpause(uint256 epoch);\r\n    event OperatorChanged(address previousOperator, address newOperator);\r\n    event CloseIntervalUpdated(\r\n        uint256 currentEpoch, \r\n        uint256 closeInterval\r\n        );\r\n    event BuffersUpdated(\r\n        uint256 currentEpoch, \r\n        uint256 startBuffer,\r\n        uint256 beforeEndBuffer,\r\n        uint256 afterEndBuffer\r\n    );\r\n    event OracleUpdateAllowanceUpdated(\r\n        uint256 currentEpoch, \r\n        uint256 _randomNumUpdateAllowance\r\n        );\r\n    event TokenWithdrawal(address to, address token, uint256 amount);\r\n    event NativeWithdrawal(address to, uint256 amount);\r\n    event TokenStakedUpdated(uint256 epoch, address token, uint8 decimals);\r\n\r\n    function initialize(\r\n        bytes memory data,\r\n        address[] memory _ownerAdminOperator\r\n    ) public initializer {\r\n\r\n        __Ownable_init();\r\n        __Pausable_init();\r\n        __ReentrancyGuard_init();\r\n\r\n        transferOwnership(_ownerAdminOperator[0]);\r\n        admin = _ownerAdminOperator[1];\r\n        operator = _ownerAdminOperator[2];\r\n\r\n        genesisStartOnce = false;\r\n        genesisEndOnce = false;\r\n\r\n        numbersByKindOfBet[0] = 18;\r\n        numbersByKindOfBet[1] = 12;\r\n        numbersByKindOfBet[2] = 6;\r\n        numbersByKindOfBet[3] = 4;\r\n        numbersByKindOfBet[4] = 3;\r\n        numbersByKindOfBet[5] = 2;\r\n        numbersByKindOfBet[6] = 1;\r\n\r\n        //Setting the bet payouts for different kinds of bets\r\n        payout[0] = 1;\r\n        payout[1] = 2;\r\n        payout[2] = 5;\r\n        payout[3] = 8;\r\n        payout[4] = 11;\r\n        payout[5] = 17;\r\n        payout[6] = 35;        \r\n\r\n        address _tokenStaked;\r\n        uint8 _decimals;\r\n        uint256 _closeInterval;\r\n        // start buffer, before end buffer, after end buffer\r\n        uint256[] memory _buffers;\r\n        uint256 _randomNumUpdateAllowance;\r\n        address _randomGenerator;\r\n        \r\n        (_tokenStaked, _decimals, _closeInterval,\r\n        _buffers, _randomNumUpdateAllowance, _randomGenerator) \r\n            = abi.decode(\r\n                    data, \r\n                    (address, uint8, uint256, uint256[], uint256, address)\r\n                );\r\n\r\n        tokenStaked = _tokenStaked;\r\n        tokenDecimals = _decimals;\r\n        randomGenerator = IRandomGenerator(_randomGenerator);\r\n        closeInterval = _closeInterval;\r\n        startBuffer = _buffers[0];\r\n        beforeEndBuffer = _buffers[1];\r\n        afterEndBuffer = _buffers[2];\r\n        randomNumUpdateAllowance = _randomNumUpdateAllowance;\r\n\r\n        //Setting min bet amounts and max bet amounts for each bet type\r\n        //Min Bet is 1 token\r\n        minBetAmount[0] = 10 ** _decimals;\r\n        minBetAmount[1] = 10 ** _decimals;\r\n        minBetAmount[2] = 10 ** _decimals;\r\n        minBetAmount[3] = 10 ** _decimals;\r\n        minBetAmount[4] = 10 ** _decimals;\r\n        minBetAmount[5] = 10 ** _decimals;\r\n        minBetAmount[6] = 10 ** _decimals;\r\n\r\n        //Max bets for outside bets are 100 USDC\r\n        //Max bets for inside bets are according to the payout!\r\n        maxBetAmount[0] = 100 * 10 ** _decimals;\r\n        maxBetAmount[1] = 80 * 10 ** _decimals;\r\n        maxBetAmount[2] = 70 * 10 ** _decimals;\r\n        maxBetAmount[3] = 60 * 10 ** _decimals;\r\n        maxBetAmount[4] = 50 * 10 ** _decimals;\r\n        maxBetAmount[5] = 40 * 10 ** _decimals;\r\n        maxBetAmount[6] = 20 * 10 ** _decimals;\r\n    }\r\n\r\n    function _authorizeUpgrade(address newImplementation) internal override onlyOwner(){}\r\n\r\n    modifier onlyAdmin{\r\n        require(msg.sender == admin, \"admin: wut?\");\r\n        _;\r\n    }\r\n\r\n    modifier onlyOperator{\r\n        require(msg.sender == operator, \"operator: wut?\");\r\n        _;\r\n    }\r\n\r\n    modifier notContract{\r\n        require(!_isContract(msg.sender), \"contract not allowed\");\r\n        require(msg.sender == tx.origin, \"proxy contract not allowed\");\r\n        _;\r\n    }\r\n\r\n    /**\r\n     * @dev set admin address\r\n     * callable by owner\r\n     */\r\n    function setAdmin(address _admin) external onlyOwner {\r\n        require(_admin != address(0), \"Cannot be zero address\");\r\n        address previousAdmin = admin;\r\n        admin = _admin;\r\n        emit AdminChanged(previousAdmin, admin);\r\n    }\r\n\r\n    /**\r\n     * @dev set operator address\r\n     * callable by admin\r\n     */\r\n    function setOperator(address _operator) external onlyAdmin {\r\n        require(_operator != address(0), \"Cannot be zero address\");\r\n        address previousOperator = operator;\r\n        operator = _operator;\r\n        emit OperatorChanged(previousOperator, operator);\r\n    }\r\n\r\n    \r\n    /**\r\n     * @dev set token staked and its decimals\r\n     * Callable by admin\r\n     */\r\n    function changeTokenStaked(address token, uint8 _decimals) \r\n        external \r\n        onlyAdmin \r\n    {\r\n        tokenStaked = token;\r\n        tokenDecimals = _decimals;\r\n\r\n        emit TokenStakedUpdated(currentEpoch, token, _decimals);\r\n    }\r\n    \r\n    /**\r\n     * @dev set close interval in seconds\r\n     * Callable by admin\r\n     */\r\n    function setCloseInterval(\r\n        uint256 _closeInterval\r\n        ) external\r\n        onlyAdmin\r\n        {\r\n\r\n            require(\r\n                afterEndBuffer <= _closeInterval && beforeEndBuffer <= _closeInterval,  \r\n                \"Roulette: buffers cannot be more than close interval\"\r\n                );\r\n\r\n            closeInterval = _closeInterval;\r\n\r\n            emit CloseIntervalUpdated(currentEpoch, _closeInterval);\r\n        }\r\n\r\n    /**\r\n     * @dev set buffers in seconds\r\n     * Callable by admin\r\n     */\r\n    function setBuffers(\r\n        uint256[] memory _buffers\r\n        ) external\r\n        onlyAdmin\r\n        {\r\n\r\n            require(\r\n                _buffers[1] <= closeInterval && _buffers[2] <= closeInterval,  \r\n                \"Roulette: before end and after end buffer cannot be more than close interval\"\r\n                );\r\n\r\n            startBuffer = _buffers[0];\r\n            beforeEndBuffer = _buffers[1];\r\n            afterEndBuffer = _buffers[2];\r\n\r\n            emit BuffersUpdated(currentEpoch, startBuffer, beforeEndBuffer, afterEndBuffer);\r\n        }\r\n\r\n    /**\r\n     * @dev get all the payouts\r\n     */\r\n    function getPayouts() external view returns(uint8[] memory){\r\n        uint8[] memory payouts = new uint8[](7);\r\n        for(uint8 i = 0; i < 7; i++){\r\n            payouts[i] = payout[i];\r\n        }\r\n        return payouts;\r\n    }\r\n\r\n    /**\r\n     * @dev get random number address\r\n     * callable by owner, admin and operator\r\n     */\r\n    function getRandomNumberOracleAdd() external view returns(address){\r\n        require(\r\n            msg.sender == owner() || msg.sender == admin || msg.sender == operator,\r\n            \"Roulette: unauthorized access\" \r\n            );\r\n        return address(randomGenerator);\r\n    }\r\n\r\n\r\n    /**\r\n     * @dev set random number address\r\n     * callable by admin\r\n     */\r\n    function setRandomNumberOracleAdd(address _randomGenerator) external onlyAdmin {\r\n        require(_randomGenerator != address(0), \"Cannot be zero address\");\r\n        randomGenerator = IRandomGenerator(_randomGenerator);\r\n    }\r\n\r\n\r\n    /**\r\n     * @dev set random number update allowance\r\n     * callable by admin\r\n     */\r\n    function setRandomNumUpdateAllowance(uint256 _randomNumUpdateAllowance)\r\n        external\r\n        onlyAdmin\r\n    {\r\n        randomNumUpdateAllowance = _randomNumUpdateAllowance;\r\n        emit OracleUpdateAllowanceUpdated(currentEpoch, _randomNumUpdateAllowance);\r\n    }\r\n\r\n    /**\r\n     * @dev set payout rate\r\n     * callable by admin\r\n     */\r\n    function setPayout(uint8[] memory betType, uint8[] memory _payout) external onlyAdmin {\r\n        require(\r\n            betType.length == _payout.length && betType.length <= 7,\r\n            \"Roulette: Array lengths mismatch\"\r\n            );\r\n\r\n        for(uint8 i = 0; i < betType.length; i++){\r\n            require(\r\n                betType[i] < 7,\r\n                \"Roulette: betTypes can range between 0 and 6(included) only\"\r\n                );\r\n            payout[betType[i]] = _payout[i];\r\n        }\r\n\r\n        emit PayoutUpdated(currentEpoch, betType, _payout);\r\n    }\r\n\r\n    /**\r\n     * @dev set minBetAmount\r\n     * callable by admin\r\n     */\r\n    function setMinBetAmount(\r\n        uint8[] memory betType, \r\n        uint256[] memory _minBetAmount\r\n        ) external \r\n        onlyAdmin \r\n    {\r\n        require(\r\n            betType.length == _minBetAmount.length && betType.length <= 7,\r\n            \"Roulette: Array lengths mismatch\"\r\n            );\r\n        \r\n        for(uint8 i = 0; i < betType.length; i++){\r\n            \r\n            require(\r\n                betType[i] < 7,\r\n                \"Roulette: betTypes can range between 0 and 6(included) only\"\r\n                );\r\n\r\n            require(\r\n                _minBetAmount[i] <= maxBetAmount[betType[i]],\r\n                \"Roulette: minBetAmount should be <= maxBetAmount\"\r\n                );\r\n\r\n            minBetAmount[betType[i]] = _minBetAmount[i];\r\n        }\r\n\r\n        emit MinBetAmountUpdated(currentEpoch, betType, _minBetAmount);\r\n    }\r\n\r\n    /**\r\n     * @dev set maxBetAmount\r\n     * callable by admin\r\n     */\r\n    function setMaxBetAmount(\r\n        uint8[] memory betType, \r\n        uint256[] memory _maxBetAmount\r\n        ) external \r\n        onlyAdmin \r\n    {\r\n        require(\r\n            betType.length == _maxBetAmount.length && betType.length <= 7,\r\n            \"Roulette: Array lengths mismatch\"\r\n            );\r\n        \r\n        for(uint8 i = 0; i < betType.length; i++){\r\n\r\n            require(\r\n                betType[i] < 7,\r\n                \"Roulette: betTypes can range between 0 and 6(included) only\"\r\n                );\r\n\r\n            require(\r\n                minBetAmount[betType[i]] <= _maxBetAmount[i],\r\n                \"Roulette: maxBetAmount should be >= minBetAmount\"\r\n                );\r\n            \r\n            maxBetAmount[betType[i]] = _maxBetAmount[i];\r\n        }\r\n\r\n        emit MaxBetAmountUpdated(currentEpoch, betType, _maxBetAmount);\r\n    }\r\n\r\n    /**\r\n     * @dev gets random round id\r\n     * callable by admin\r\n     */\r\n    function getRandomRoundId() public view returns(uint256){\r\n        require(\r\n            msg.sender == owner() || msg.sender == admin || msg.sender == operator,\r\n            \"Roulette: Unauthorized function call\"\r\n        );\r\n        return randomRoundId;\r\n    }\r\n\r\n    /**\r\n     * @dev Start genesis round\r\n     */\r\n    function genesisStartRound() external virtual onlyOperator whenNotPaused {\r\n        require(!genesisStartOnce, \"Can only run once\");\r\n        currentEpoch = currentEpoch + 1;\r\n        _startRound(currentEpoch);\r\n        genesisStartOnce = true;\r\n    }\r\n\r\n    /**\r\n     * @dev Lock genesis round\r\n     */\r\n    function genesisEndRound() external virtual onlyOperator whenNotPaused {\r\n        require(\r\n            genesisStartOnce,\r\n            \"Can only run after genesisStartRound is triggered\"\r\n        );\r\n        require(!genesisEndOnce, \"Can only run once\");\r\n        require(\r\n            block.timestamp <= (rounds[currentEpoch].endTime).add(afterEndBuffer),\r\n            \"Can only end round within buffer\"\r\n        );\r\n        uint8 random = _getNumberFromOracle();\r\n\r\n        _safeEndRound(currentEpoch, random);\r\n        _calculateRewards(currentEpoch);\r\n\r\n        currentEpoch = currentEpoch + 1;\r\n        _startRound(currentEpoch);\r\n        genesisEndOnce = true;\r\n    }\r\n\r\n    /**\r\n     * @dev Start the next round n, lock price for round n-1, end round n-2\r\n     */\r\n    function closeRound() external virtual onlyOperator whenNotPaused {\r\n        require(\r\n            genesisStartOnce && genesisEndOnce,\r\n            \"Can only run after genesis rounds\"\r\n        );\r\n        uint8 randomNum = _getNumberFromOracle();\r\n        // CurrentEpoch refers to previous round\r\n        _safeEndRound(currentEpoch, randomNum);\r\n        _calculateRewards(currentEpoch);\r\n\r\n        // Increment currentEpoch to current round (n)\r\n        currentEpoch = currentEpoch + 1;\r\n    }\r\n\r\n\r\n    /**\r\n     * @dev Start round\r\n     * Previous round n-2 must end\r\n     */\r\n    function startRound() external virtual onlyOperator whenNotPaused nonReentrant{\r\n        require(\r\n            genesisStartOnce,\r\n            \"genesisStartRound not triggered\"\r\n        );\r\n        require(\r\n            rounds[currentEpoch - 1].endTime != 0 && block.timestamp >= (rounds[currentEpoch - 1].endTime),\r\n            \"Roulette: Round n-1 not ended\"\r\n        );\r\n        require(\r\n            block.timestamp >= (rounds[currentEpoch - 1].endTime).add(startBuffer),\r\n            \"Roulette: Can only start round after start buffer\"\r\n        );\r\n        _startRound(currentEpoch);\r\n    }\r\n\r\n    function _startRound(uint256 epoch) internal virtual{\r\n        Round storage round = rounds[epoch];\r\n        round.startTime = block.timestamp;\r\n        round.endTime = block.timestamp.add(closeInterval);\r\n        round.epoch = epoch;\r\n        round.totalAmountBet = 0;\r\n\r\n        emit StartRound(epoch, block.timestamp);\r\n    }\r\n\r\n\r\n    /**\r\n     * @dev End round\r\n     */\r\n    function _safeEndRound(uint256 epoch, uint8 winningNum) internal virtual{\r\n        require(\r\n            rounds[epoch].startTime != 0,\r\n            \"round doesn't exist\"\r\n        );\r\n        require(\r\n            block.timestamp >= rounds[epoch].endTime &&\r\n            block.timestamp <= rounds[epoch].endTime.add(afterEndBuffer),\r\n            \"Can only end between endTime & buffer\"\r\n        );\r\n\r\n        _endRound(epoch, winningNum);\r\n    }\r\n\r\n    function _endRound(uint256 epoch, uint8 winningNum) internal virtual{\r\n        Round storage round = rounds[epoch];\r\n        round.winningNumber = winningNum;\r\n        round.oracleCalled = true;\r\n\r\n        emit EndRound(epoch, block.timestamp, winningNum);\r\n    }\r\n\r\n    /**\r\n     * @dev Calculate rewards for round\r\n     */\r\n    function _calculateRewards(uint256 epoch) internal virtual{\r\n        require(\r\n            rounds[epoch].totalRewardAmount == 0,\r\n            \"Rewards calculated\"\r\n        );\r\n        Round storage round = rounds[epoch];\r\n        uint8 winner = round.winningNumber;\r\n        uint256 totalRewards = 0;\r\n        uint256 treasuryAmt = 0;\r\n\r\n        for(uint8 i = 0; i < 7; i++){\r\n            totalRewards = totalRewards.add(round.totalAmountInSlabs[winner][payout[i]].mul(payout[i] + 1));\r\n        }\r\n\r\n        round.totalRewardAmount = totalRewards;\r\n        if(totalRewards < round.totalAmountBet){\r\n            treasuryAmt = (round.totalAmountBet).sub(totalRewards);\r\n        }\r\n        // Add to treasury\r\n        round.treasuryCollections = treasuryAmt;\r\n        treasuryAmount = treasuryAmount.add(treasuryAmt);\r\n\r\n        emit RewardsCalculated(\r\n            epoch,\r\n            totalRewards,\r\n            treasuryAmt\r\n        );\r\n    }\r\n\r\n\r\n    /**\r\n     * @dev User bets\r\n     */\r\n    function bet(Bet[] memory bets) external virtual whenNotPaused notContract nonReentrant{\r\n\r\n        require(bettable(currentEpoch), \"Round not bettable\");\r\n\r\n        require(\r\n            ledger[currentEpoch][msg.sender].totalAmount == 0,\r\n            \"Can only bet once per round\"\r\n        );\r\n\r\n        BetInfo storage betInfo = ledger[currentEpoch][msg.sender];\r\n        Round storage round = rounds[currentEpoch];\r\n\r\n        for(uint8 i = 0; i< bets.length; i++){\r\n            \r\n            betInfo.bets.push(bets[i]);\r\n            uint8 betType = bets[i].betType;\r\n\r\n            require(betType < 7, \"Roulette: betTypes can range between 0 and 6(included) only\");\r\n\r\n            require(\r\n                bets[i].amount >= minBetAmount[betType] && bets[i].amount <= maxBetAmount[betType],\r\n                \"Roulette: Amount < MinBetAmount or Amount > MaxBetAmount for atleast one of the bets\"\r\n            );\r\n            \r\n            require(\r\n                bets[i].numbers.length == numbersByKindOfBet[betType],\r\n                \"Roulette: invalid entry of numbers in atleast one bet\"\r\n                );\r\n\r\n            uint8 slab = payout[betType];\r\n            \r\n            for(uint8 j = 0; j < bets[i].numbers.length; j++){\r\n                round.totalAmountInSlabs[bets[i].numbers[j]][slab] = \r\n                    (round.totalAmountInSlabs[bets[i].numbers[j]][slab]).add(bets[i].amount);\r\n                \r\n                betInfo.amountInSlabs[bets[i].numbers[j]][slab] = \r\n                    (betInfo.amountInSlabs[bets[i].numbers[j]][slab]).add(bets[i].amount);\r\n            }\r\n\r\n            betInfo.totalAmount = (betInfo.totalAmount).add(bets[i].amount);\r\n            round.totalAmountBet = \r\n                (round.totalAmountBet).add(bets[i].amount);\r\n        }\r\n\r\n        IERC20Upgradeable(tokenStaked).safeTransferFrom(msg.sender, address(this), betInfo.totalAmount);\r\n        userRounds[msg.sender].push(currentEpoch);\r\n        emit Bets(bets, msg.sender, currentEpoch, betInfo.totalAmount);\r\n    }\r\n\r\n   \r\n    function claim(uint256 epoch) external virtual notContract nonReentrant{\r\n        require(rounds[epoch].startTime != 0, \"Round not started\");\r\n        require(block.timestamp > rounds[epoch].endTime, \"Round not ended\");\r\n        require(!ledger[epoch][msg.sender].claimed, \"Rewards claimed\");\r\n        \r\n        (bool canClaim, uint256 reward) = claimable(epoch, msg.sender);\r\n        \r\n        require(\r\n            canClaim || refundable(epoch, msg.sender),\r\n            \"Not claimable or refundable\"\r\n            );\r\n        \r\n        if(refundable(epoch, msg.sender)){\r\n            reward = ledger[epoch][msg.sender].totalAmount;\r\n        }\r\n\r\n        ledger[epoch][msg.sender].claimed = true;\r\n        _safeTransferToken(address(msg.sender), reward);\r\n\r\n        emit Claim(msg.sender, epoch, reward);\r\n    }\r\n\r\n    /**\r\n     * @dev Claim all rewards in treasury\r\n     * callable by admin\r\n     */\r\n    function claimTreasury() external virtual onlyAdmin{\r\n        require(treasuryAmount > 0, \"Zero treasury amount\");\r\n        uint256 currentTreasuryAmount = treasuryAmount;\r\n        treasuryAmount = 0;\r\n        _safeTransferToken(admin, currentTreasuryAmount);\r\n        emit ClaimTreasury(currentTreasuryAmount);\r\n    }\r\n\r\n    /**\r\n     * @dev Return round epochs that a user has participated\r\n     */\r\n    function getUserRounds(\r\n        address user,\r\n        uint256 cursor,\r\n        uint256 size\r\n    ) external view returns (uint256[] memory, uint256) {\r\n        uint256 length = size;\r\n        if (length > userRounds[user].length - cursor) {\r\n            length = userRounds[user].length - cursor;\r\n        }\r\n\r\n        uint256[] memory values = new uint256[](length);\r\n        for (uint256 i = 0; i < length; i++) {\r\n            values[i] = userRounds[user][cursor + i];\r\n        }\r\n\r\n        return (values, cursor + length);\r\n    }\r\n\r\n    /**\r\n     * @dev called by the admin to pause, triggers stopped state\r\n     */\r\n    function pause() public onlyAdmin whenNotPaused returns(bool){\r\n        _pause();\r\n\r\n        emit Pause(currentEpoch);\r\n        return true;\r\n    }\r\n\r\n    /**\r\n     * @dev called by the admin to unpause, returns to normal state\r\n     * Reset genesis state. Once paused, the rounds would need to be kickstarted by genesis\r\n     */\r\n    function unpause() public onlyAdmin whenPaused returns(bool){\r\n        genesisStartOnce = false;\r\n        genesisEndOnce = false;\r\n        _unpause();\r\n\r\n        emit Unpause(currentEpoch);\r\n        return true;\r\n    }\r\n\r\n    /**\r\n     * @dev Get the claimable stats of specific epoch and user account\r\n     */\r\n    function claimable(uint256 epoch, address user) \r\n        public \r\n        virtual\r\n        view \r\n        returns (bool, uint256) \r\n    {\r\n        BetInfo storage betInfo = ledger[epoch][user];\r\n        uint8 winningNum = rounds[epoch].winningNumber;\r\n        uint256 winAmount = 0;\r\n        for(uint8 i = 0; i < 7; i++){\r\n            winAmount = winAmount.add((betInfo.amountInSlabs[winningNum][payout[i]]).mul(payout[i] + 1));\r\n        }\r\n\r\n        return\r\n            ((rounds[epoch].oracleCalled && winAmount > 0), winAmount);\r\n    }\r\n\r\n    /**\r\n     * @dev Get the refundable stats of specific epoch and user account\r\n     */\r\n    function refundable(uint256 epoch, address user)\r\n        public\r\n        virtual\r\n        view\r\n        returns (bool)\r\n    {\r\n        return\r\n            //If the round is cancelled because of any error, then refund the amount\r\n            (!rounds[epoch].oracleCalled &&\r\n            block.timestamp > rounds[epoch].endTime.add(afterEndBuffer) &&\r\n            ledger[epoch][user].totalAmount != 0);\r\n    }\r\n\r\n    \r\n    /**\r\n     * @dev Get latest recorded price from oracle\r\n     * If it falls below allowed buffer or has not updated, it would be invalid\r\n     */\r\n    function _getNumberFromOracle() internal returns (uint8) {\r\n        uint256 allowedTime = block.timestamp.add(\r\n            randomNumUpdateAllowance\r\n        );\r\n        (uint256 roundId, uint256 winner, uint256 timestamp) = \r\n            randomGenerator.latestRoundData(37);\r\n        require(\r\n            timestamp <= allowedTime,\r\n            \"Oracle update exceeded max allowance\"\r\n        );\r\n        require(\r\n            roundId >= randomRoundId,\r\n            \"Oracle update roundId < old id\"\r\n        );\r\n        randomRoundId = roundId;\r\n        return uint8(winner);\r\n    }\r\n\r\n    function _safeTransferToken(address to, uint256 value) internal {\r\n        IERC20Upgradeable(tokenStaked).safeTransfer(to, value);\r\n    }\r\n\r\n    function _isContract(address addr) internal view returns (bool) {\r\n        uint256 size;\r\n        assembly {\r\n            size := extcodesize(addr)\r\n        }\r\n        return size > 0;\r\n    }\r\n\r\n    function bettable(uint256 epoch) public virtual view returns (bool) {\r\n        Round storage round = rounds[epoch];\r\n        return\r\n            round.startTime != 0 &&\r\n            round.endTime != 0 &&\r\n            block.timestamp > round.startTime &&\r\n            block.timestamp < round.endTime.sub(beforeEndBuffer);\r\n    }\r\n\r\n    //If someone accidently sends tokens or native currency to this contract\r\n    function withdrawAllTokens(address token) external onlyAdmin{\r\n        uint256 bal = IERC20Upgradeable(token).balanceOf(address(this));\r\n        withdrawToken(token, bal);\r\n    }\r\n\r\n    \r\n    function withdrawToken(address token, uint256 amount) public virtual onlyAdmin{\r\n        // require(token != tokenStaked, \"Cannot withdraw the token staked\");\r\n        uint256 bal = IERC20Upgradeable(token).balanceOf(address(this));\r\n        require(bal >= amount, \"balanace of token in contract too low\");\r\n        IERC20Upgradeable(token).safeTransfer(admin, amount);\r\n        emit TokenWithdrawal(admin, token, amount);\r\n    }\r\n\r\n    function withdrawAllNative() external onlyAdmin{\r\n        uint256 bal = address(this).balance;\r\n        withdrawNative(bal);\r\n    } \r\n\r\n    function withdrawNative(uint256 amount) public virtual onlyAdmin{\r\n        uint256 bal = address(this).balance;\r\n        require(bal >= amount, \"balanace of native token in contract too low\");\r\n        (bool sent, ) = admin.call{value: amount}(\"\");\r\n        require(sent, \"Failure in native token transfer\");\r\n        emit NativeWithdrawal(admin, amount);\r\n    }\r\n}\r\n\r\ncontract RouletteV2 is Roulette{\r\n    function version() public pure returns(string memory){\r\n        return 'v2!';\r\n    }\r\n}\r\n    ",
  "sourcePath": "C:\\Users\\shiva\\OneDrive\\Desktop\\RouletteNew\\contracts\\Roulette.sol",
  "compiler": {
    "name": "solc",
    "version": "0.8.6+commit.11564f7e.Emscripten.clang"
  },
  "schemaVersion": "3.4.4",
  "updatedAt": "2022-02-23T12:15:19.993Z",
  "devdoc": {
    "kind": "dev",
    "methods": {
      "bet((uint8,uint8[],uint256)[])": {
        "details": "User bets"
      },
      "changeTokenStaked(address,uint8)": {
        "details": "set token staked and its decimals Callable by admin"
      },
      "claimTreasury()": {
        "details": "Claim all rewards in treasury callable by admin"
      },
      "claimable(uint256,address)": {
        "details": "Get the claimable stats of specific epoch and user account"
      },
      "closeRound()": {
        "details": "Start the next round n, lock price for round n-1, end round n-2"
      },
      "genesisEndRound()": {
        "details": "Lock genesis round"
      },
      "genesisStartRound()": {
        "details": "Start genesis round"
      },
      "getPayouts()": {
        "details": "get all the payouts"
      },
      "getRandomNumberOracleAdd()": {
        "details": "get random number address callable by owner, admin and operator"
      },
      "getRandomRoundId()": {
        "details": "gets random round id callable by admin"
      },
      "getUserRounds(address,uint256,uint256)": {
        "details": "Return round epochs that a user has participated"
      },
      "owner()": {
        "details": "Returns the address of the current owner."
      },
      "pause()": {
        "details": "called by the admin to pause, triggers stopped state"
      },
      "paused()": {
        "details": "Returns true if the contract is paused, and false otherwise."
      },
      "proxiableUUID()": {
        "details": "Implementation of the ERC1822 {proxiableUUID} function. This returns the storage slot used by the implementation. It is used to validate that the this implementation remains valid after an upgrade. IMPORTANT: A proxy pointing at a proxiable contract should not be considered proxiable itself, because this risks bricking a proxy that upgrades to it, by delegating to itself until out of gas. Thus it is critical that this function revert if invoked through a proxy. This is guaranteed by the `notDelegated` modifier."
      },
      "refundable(uint256,address)": {
        "details": "Get the refundable stats of specific epoch and user account"
      },
      "renounceOwnership()": {
        "details": "Leaves the contract without owner. It will not be possible to call `onlyOwner` functions anymore. Can only be called by the current owner. NOTE: Renouncing ownership will leave the contract without an owner, thereby removing any functionality that is only available to the owner."
      },
      "setAdmin(address)": {
        "details": "set admin address callable by owner"
      },
      "setBuffers(uint256[])": {
        "details": "set buffers in seconds Callable by admin"
      },
      "setCloseInterval(uint256)": {
        "details": "set close interval in seconds Callable by admin"
      },
      "setMaxBetAmount(uint8[],uint256[])": {
        "details": "set maxBetAmount callable by admin"
      },
      "setMinBetAmount(uint8[],uint256[])": {
        "details": "set minBetAmount callable by admin"
      },
      "setOperator(address)": {
        "details": "set operator address callable by admin"
      },
      "setPayout(uint8[],uint8[])": {
        "details": "set payout rate callable by admin"
      },
      "setRandomNumUpdateAllowance(uint256)": {
        "details": "set random number update allowance callable by admin"
      },
      "setRandomNumberOracleAdd(address)": {
        "details": "set random number address callable by admin"
      },
      "startRound()": {
        "details": "Start round Previous round n-2 must end"
      },
      "transferOwnership(address)": {
        "details": "Transfers ownership of the contract to a new account (`newOwner`). Can only be called by the current owner."
      },
      "unpause()": {
        "details": "called by the admin to unpause, returns to normal state Reset genesis state. Once paused, the rounds would need to be kickstarted by genesis"
      },
      "upgradeTo(address)": {
        "details": "Upgrade the implementation of the proxy to `newImplementation`. Calls {_authorizeUpgrade}. Emits an {Upgraded} event."
      },
      "upgradeToAndCall(address,bytes)": {
        "details": "Upgrade the implementation of the proxy to `newImplementation`, and subsequently execute the function call encoded in `data`. Calls {_authorizeUpgrade}. Emits an {Upgraded} event."
      }
    },
    "version": 1
  },
  "userdoc": {
    "kind": "user",
    "methods": {},
    "version": 1
  }
}